:10000000F8FF0220110400009B2300009B23000046
:100010009B2300009B2300009B2300009B230000E8
:100020009B2300009B2300009B2300009B230000D8
:100030009B2300009B2300009B2300009B230000C8
:100040009B2300009B2300009B2300009B230000B8
:100050009B2300009B2300009B2300009B230000A8
:100060009B2300009B2300009B2300009B23000098
:100070009B2300009B2300009B2300009B23000088
:100080009B2300009B2300009B2300009B23000078
:100090009B2300009B2300009B2300009B23000068
:1000A0009B2300009B2300009B2300009B23000058
:1000B0009B2300009B2300009B2300009B23000048
:1000C0009B2300009B2300009B2300009B23000038
:1000D0009B2300009B2300009B2300009B23000028
:1000E0009B2300009B2300009B2300009B23000018
:1000F0009B2300009B2300009B2300009B23000008
:10010000013F00009B2300009B2300009B23000075
:100110009B2300009B2300009B2300009B230000E7
:100120009B2300009B2300009B2300009B230000D7
:100130009B230000A13E0000D13E00009B23000055
:100140009B2300009B2300009B2300009B230000B7
:100150009B2300009B2300009B2300009B230000A7
:100160009B2300009B2300009B2300009B23000097
:100170009B2300009B2300009B2300009B23000087
:10040000FFFFFFFFFFFFFFFFFFFFFFFFFEFFFFFFFD
:100410004FF000004FF000014FF000024FF00003DA
:100420004FF000044FF000054FF000064FF00007BA
:100430004FF000084FF000094FF0000A4FF0000B9A
:100440004FF0000C62B603F0A0FFFEE730B40300EB
:100450000C0015006A1E002D04D025781D70641C48
:100460005B1CF6E730BC704710B403001400621E3A
:10047000002C02D019705B1CF8E710BC704770B4F8
:1004800003001C000D0000201600721E002E06D076
:1004900020782E78801B6D1C641C0028F4D070BC62
:1004A000704790F90020002A05D090F900208A4278
:1004B00001D0401CF5E790F900007047F8B5040042
:1004C0000D00E06A0600AE4232D02079002821D02B
:1004D0000123320014F13001607801F0ADF90028F9
:1004E00001D0012025E000202071206AE169081870
:1004F00086420FD2E0780700FFB2022F0ADBE069E4
:1005000086190123320014F13001607801F094F96A
:100510007F1EF1E7002D0BD001232A0014F13001DA
:10052000607801F0F5F8002801D0012001E0E562D3
:100530000020F2BD0200891E9069801E814201D315
:10054000002003E09078926A00FB012070472DE9BB
:10055000F04104000D00022D02D3A069854201D3B1
:10056000012063E02078012804D05DD3032840D027
:100570002BD359E0A84618EB5808206A10EB5821F5
:100580002000FFF79BFF00284ED15FEAC850C00D46
:10059000204490F83000060018F10108206A10EBA2
:1005A00058212000FFF78AFF00283DD15FEAC8509C
:1005B000C00D204490F8300056EA0026E80701D527
:1005C000300901E03005000D30E0206A10EB152104
:1005D0002000FFF773FF002826D16800C005C00D7A
:1005E0002044303007007878397851EA002080B212
:1005F0001CE0206A10EBD5112000FFF75FFF0028F8
:1006000012D1A800C005C00D204430300700F87892
:10061000B978090451EA0060797850EA0120397804
:10062000084320F0704001E05FF0FF30BDE8F0814A
:100630002DE9F84304000D001600022D02D3A06935
:10064000854202D3022081468FE02078012805D020
:10065000C0F0878003285ED043D382E02F0017EBE1
:100660005707206A10EB57212000FFF727FF81462C
:100670004FFA89F9B9F1000F75D1F805C00D204482
:1006800030308046E80706D598F8000010F00F00DB
:1006900050EA061000E0300088F800007F1C0120BE
:1006A0002071206A10EB57212000FFF707FF8146D9
:1006B0004FFA89F9B9F1000F55D1F805C00D204462
:1006C00030308046E80701D5300907E098F800008F
:1006D00010F0F000310A11F00F01084388F8000013
:1006E00041E0206A10EB15212000FFF7E7FE81466C
:1006F0004FFA89F9B9F1000F35D16800C005C00D76
:1007000020443030804688F80060300080B2000A13
:1007100088F8010027E0206A10EBD5112000FFF7D0
:10072000CDFE81464FFA89F9B9F1000F1BD1A8001F
:10073000C005C00D20443030804698F80300000604
:1007400010F07040064388F80060300080B2000A64
:1007500088F80100300C88F80200300E88F8030099
:1007600001E00220814601202071484640B2BDE8E8
:10077000F283F8B504000D00022D02D3A069854272
:1007800002D3022006002AE000200600A06985426C
:1007900025D229002000FFF7DAFE0700002F1ED027
:1007A000012F02D10220060019E017F1010F02D13A
:1007B0000120060013E0002229002000FFF738FF87
:1007C000060076B2002E0AD1206910F1010F04D084
:1007D0002069401C2061012060713D00D6E7300097
:1007E00040B2F2BD2DE9F84304000D00002D0AD1FE
:1007F000E0688046B8F1000F02D0A069804511D3AF
:10080000012080460EE029002000FFF7A0FE060030
:10081000022E01D2012051E0A069864201D23000AF
:100820004CE0A84647467F1CA069874205D30220BA
:100830000700B84501D2002040E039002000FFF752
:1008400086FE0600002E0CD17FF070423900200099
:10085000FFF7EEFE81464FFA89F9B9F1000F13D187
:100860000AE016F1010F01D0012E01D1300025E080
:100870004745D8D1002021E0002D05D03A002900BD
:100880002000FFF7D5FE81464FFA89F9B9F1000F34
:100890000AD1E760206910F1010F0ED02069401ED7
:1008A00020610120607108E04FFA89F9B9F1010F68
:1008B00002D15FF0FF3700E001273800BDE8F28386
:1008C000F8B504000D00E580A0680600012E03D0F5
:1008D00020688069864201D302204BE0002E06D1B9
:1008E00020680078032802D12068406A0600002EA4
:1008F0000FD1E66028002168098980B2884201D3BF
:10090000022037E02068406AADB210EB151020617C
:1009100027E02068807880B20001070028003900B5
:1009200080B289B2884213D331002068FFF70FFEEE
:10093000060016F1010F01D101201BE0022E03D3A6
:1009400020688069864201D3022013E0ED1BE5E7B1
:10095000E66031002068FFF7EDFDADB210EB151039
:1009600020612068ADB215F00F0149010844303014
:1009700060610020F2BD2DE9F04104000F00E08825
:10098000401C0600B6B2002E02D02069002801D11A
:10099000042087E00F2006427AD12069401C2061A4
:1009A000E068002807D130002168098980B28842B8
:1009B0006ED3042076E0B6B220688078401E10EA3C
:1009C000161F65D1E1682068FFF7C1FD0500022D03
:1009D00001D2022066E015F1010F01D1012061E092
:1009E0002068806985424DD3002F01D1042059E051
:1009F000E1682068FFF7F6FE0500002D01D1072011
:100A000050E0012D01D102204CE015F1010F01D180
:100A1000012047E000212068FFF750FD002801D0A9
:100A200001203FE04FF40072002120683030FFF7D2
:100A30001BFD29002068FFF77DFD2168C8620020AA
:100A40008046404621688978C0B2884212D201208F
:100A50002168087100212068FFF730FD002801D0CF
:100A600001201FE02068C06A401C2168C86218F19C
:100A70000108E6E72068C06A5FFA88F8B0EB080072
:100A80002168C862E56029002068FFF753FD2061F6
:100A9000E6802068B6B216F00F01490108443030F4
:100AA00060610020BDE8F081F8B50400002120005D
:100AB000FFF706FF07007FB2002F02D0380040B2D8
:100AC00025E021692068FFF7F9FC07007FB2002FBD
:100AD0001BD16069060030780500EDB2002D02D10F
:100AE0000420070011E0F07A000706D40B22A16968
:100AF0003000FFF7C4FC002807D000212000FFF7DA
:100B00003AFF07007FB2002FDBD0380040B2F2BDC1
:100B1000F8B5040000212000FFF7D2FE05006DB2F9
:100B2000002D19D121692068FFF7C8FC05006DB2BE
:100B3000002D11D1606900780600F6B2E52E02D0D2
:100B4000F6B2002E00D107E001212000FFF713FFCD
:100B500005006DB2002DE5D06DB2002D16D12169D2
:100B60002068FFF7ABFC05006DB2002D0ED1606967
:100B70000700202200213800FFF776FC0B22A16934
:100B80003800FFF763FC012021680871280040B29B
:100B9000F2BD2DE9F34F81B00298006883469BF9BE
:100BA00000002F2803D09BF900005C2802D11BF124
:100BB000010BF4E70198806907000B22202138001F
:100BC000FFF752FC00200400E4B2A246D146082000
:100BD00080461BF80900050019F10109EDB2212D2D
:100BE00005DBEDB22F2D02D0EDB25C2D07D10BEB62
:100BF000090002990860EDB2212D61DA5EE0EDB2E4
:100C00002E2D01D0C2450DD3B8F1080F02D1EDB29F
:100C10002E2D01D0062072E0082082460B2080464F
:100C2000A400D6E7EDB2802D01DB54F00304EDB251
:100C3000812D22DBEDB2FF2D1FD01BF8090006002D
:100C400019F10109F6B2402E02DBF6B27F2E05DB68
:100C5000F6B2802E06DBF6B2FF2E03D0B8F101000B
:100C6000824501D306204AE007F80A501AF1010A2A
:100C700007F80A601AF1010AABE7EDB22900DFF8C4
:100C8000D405FFF70EFC002801D0062037E0EDB2B6
:100C9000412D05DBEDB25B2D02DA54F0020408E0D1
:100CA000EDB2612D05DBEDB27B2D02DA54F00104CB
:100CB000203D07F80A501AF1010A8AE7042500E0EE
:100CC0000025BAF1000F01D1062018E03878E52898
:100CD00001D105203870B8F1080F00D1A400E4B2AA
:100CE00014F00300012801D155F01005E4B214F00E
:100CF0000C00042801D155F00805FD720020BDE864
:100D0000FE8FF2B50400009890F900002F2804D05F
:100D1000009890F900005C2802D10098401C0090D7
:100D20000020A060009890F90000202807D2002140
:100D30002000FFF7C5FD05000020606131E0694635
:100D40002000FFF726FF05006DB2002D29D12000FD
:100D5000FFF7AAFE0500A069C07A07006DB2002D5A
:100D600007D06DB2042D1CD1780701D405200500F1
:100D700017E0780715D460690600F07AC00602D43F
:100D8000052005000DE0707D317D51EA002080B224
:100D9000F17EB27E52EA012189B251EA0040A060A0
:100DA000CDE7280040B2F2BD38B504000D000123A4
:100DB0002A0014F13001607800F0AAFC002801D06C
:100DC00003202DE094F82F0294F82E1251EA00200F
:100DD00080B24AF65521884201D0022020E094F8E2
:100DE000680094F86710090251EA004094F8661010
:100DF0000843DFF86414884201D1002010E094F821
:100E0000840094F88310090251EA004094F882109B
:100E10000843DFF84414884201D1002000E001209B
:100E200032BD2DE9F34F87B093460798D0F8008084
:100E300098F900003038029002980A2809D298F9EF
:100E400001003A2805D118F102080798C0F800807F
:100E500001E0002002900298002801D00B20DDE183
:100E6000DFF8F803029950F821000700089807609E
:100E7000002F01D10C20D1E13878002815D07878E6
:100E800000F07CFD8DF800009DF80000C0070CD438
:100E90005FFA8BFBBBF1000F05D09DF80000400707
:100EA00001D50A20BAE10020B8E10020387002988C
:100EB0007870787800F0AEFA8DF800009DF80000A8
:100EC000C00701D50320A9E15FFA8BFBBBF1000F3E
:100ED00005D09DF80000400701D50A209EE10020C2
:100EE000019001993800FFF75FFF0400E4B2012C84
:100EF00029D1002081465FFA89F9B9F1000F01D0AC
:100F0000B9F101095FFA89F95FEA091038444FF431
:100F1000F7710844039003980079002813D00398D0
:100F2000C07A0399897A090451EA00600399497AE1
:100F300050EA01200399097A084301900199380089
:100F4000FFF732FF0400E4B2032C01D1012065E178
:100F5000E4B2002C01D00D2060E197F83C0097F836
:100F60003B1051EA002080B2B0F5007F01D00D2087
:100F700054E197F8470097F8461051EA002080B2F4
:100F80008246BAF1000F0ED197F8570097F8561025
:100F9000090451EA006097F8551050EA012097F8CB
:100FA000541008438246C7F81CA097F8400005007B
:100FB000FD70EDB2012D04D0EDB2022D01D00D2057
:100FC0002CE1EDB205FB0AFA97F83D000500BD7073
:100FD000EDB2002D04D0691E2800C0B2084201D035
:100FE0000D201BE197F8420097F8411051EA0020CC
:100FF0003881387A0F21084201D00D200EE197F890
:10100000440097F8431051EA002080B205900598FB
:1010100000280ED197F8530097F85210090451EAAE
:10102000006097F8511050EA012097F850100843DB
:10103000059097F83F0097F83E1051EA0020ADF870
:101040000200BDF80200002801D10D20E6E0BDF845
:1010500002001AFA80F0398910EB111006900598F9
:101060000699884201D20D20D8E005980699401AC9
:10107000B978B0FBF1F004900498002801D10D205C
:10108000CCE001200400049840F6F671884201D3B8
:101090000220040004984FF6F671884201D3032021
:1010A00004000498801CB861019806990818B86279
:1010B0000198BDF8021010FA81F03862E4B2032CF6
:1010C00017D13889002801D00D20A7E097F85F00DC
:1010D00097F85E10090451EA006097F85D1050EA35
:1010E000012097F85C1008437862B8698000060018
:1010F00016E03889002801D10D208FE0386A1AEBFC
:1011000000007862E4B2022C02D1B869460007E020
:10111000B86903214843397E11F0010111EB5006F3
:10112000F86906F2FF11B0EB512F01D20D2075E0E6
:101130005FF0FF3038610020F860E4B2032C5FD12B
:1011400000207871019897F8611097F8602052EAB2
:10115000012110FA81F0786101237A6917F13001D9
:10116000787800F0D5FA00284AD197F82F0297F83E
:101170002E1251EA002080B24AF6552188423FD112
:1011800097F8330097F83210090451EA006097F895
:10119000311050EA012097F8301008433049884256
:1011A0002ED197F8170297F81612090451EA006039
:1011B00097F8151250EA012097F8141208432949AC
:1011C00088421DD197F81F0297F81E12090451EAB0
:1011D000006097F81D1250EA012097F81C1208438E
:1011E000F86097F81B0297F81A12090451EA006098
:1011F00097F8191250EA012097F81812084338613D
:101200003C7019480088401C17490880164800881F
:10121000F8800020F86200203871002009B0BDE895
:10122000F08F0200D2B2002A01D00B2011E00B484F
:10123000D2B250F822000300002B01D00020187019
:10124000002901D0002008700448D2B240F82210D2
:1012500000207047544C0000464154002C05FF1FED
:101260005252614172724161E405FF1F2DE9F24360
:101270008AB0040017000020206017F01F0717F045
:10128000FE0269460AA8FFF7CCFD050007A80690F4
:101290006DB2002D04D10A996846FFF732FD0500B2
:1012A000059806006DB2002D03D1002E01D1062055
:1012B00005001C20074267D06DB2002D0BD06DB227
:1012C000042D03D16846FFF723FC050057F00807FB
:1012D000059806000AE0F07A1121084202D00720A2
:1012E000050003E0780701D5082005006DB2002D48
:1012F0005AD1380758D500F057FB804686F80E8043
:10130000404680B2000AF0735FEA184030745FEA2A
:10131000186070740020F072002030770020707721
:101320000020B0770020F077707D317D51EA0020F9
:1013300080B2F17EB27E52EA012189B251EA0040C8
:1013400081460020B0760020F07600203075002025
:101350007075012000990871B9F1000F24D0009830
:10136000C06A804649460098FFF703FA05006DB24F
:10137000002D19D1B9F101000099C86041460098CB
:10138000FFF79CF805000FE06DB2002D0CD1F07A4C
:10139000C00602D50420050006E0B80704D5F07A9F
:1013A000C00701D5072005006DB2002D07D1380711
:1013B00001D557F020070098C06AE06126626DB23F
:1013C000002D21D1A771707D317D51EA002080B2BE
:1013D000F17EB27E52EA012189B251EA00402061D9
:1013E000F07FB17F090451EA0060717F50EA01206B
:1013F000317F0843E0600020A0600020A0610098D9
:1014000020600098C088A080280040B20BB0BDE8E2
:10141000F0830000F0B589B00400E4B2002C01D0E4
:10142000012035E1DFF868050078800703D5DFF893
:10143000600500782CE1DFF858050078C00701D47A
:10144000002025E10020DFF84C1548600020DFF87F
:10145000441588600020DFF83C15C8600020DFF8E4
:10146000341508740020DFF82C1548740021002082
:1014700000F038FC002801D0002009E10020009095
:101480006946022000F02EFC002801D00020FFE079
:101490000098022808D00098032805D00098052855
:1014A00002D0009806281DD10098032802D0009889
:1014B000062803D10120DFF8DC14087402208DF81F
:1014C000040000208DF805000020029000208DF817
:1014D00006000020039001A9012000F003FC002871
:1014E00002D103E00020D3E00020D1E003208DF8FA
:1014F000040000208DF805000020029000208DF8E7
:1015000006000020039001A9012000F0EBFB002859
:1015100001D00020BCE00498000C0004DFF8741433
:10152000C86009208DF8040000208DF80500DFF860
:101530006404C068029000208DF80600002003902B
:1015400001A9012000F0CEFB002801D000209FE07F
:10155000079810F4400F1ED10698C0F30320060030
:101560009DF8180010F0030007000598800D50EA60
:1015700087270598C0F3C2100500781C0121AA1C1A
:101580009140484301213200093A91404843DFF835
:10159000041488600CE00120DFF8F8134874059803
:1015A000C0F315200700781C8002DFF8E81388607C
:1015B00007208DF8040000208DF80500DFF8D40323
:1015C000C068029000208DF806000020039001A959
:1015D000012000F087FB002801D0002058E01020F7
:1015E0008DF8040000208DF805004FF40070029083
:1015F00000208DF806000020039001A9012000F0D2
:1016000071FB002801D0002042E037208DF8040053
:1016100000208DF80500DFF87C03C06802900020F0
:101620008DF806000020039001A9012000F05AFB6C
:10163000002801D000202BE006208DF804000020B7
:101640008DF805000220029000208DF80600002091
:10165000039001A9012000F045FB002801D00020E3
:1016600016E0012000906946042000F03BFB0028B2
:1016700001D000200CE0DFF81803007810F0FE0025
:10168000DFF80C130870DFF80803007810F003008F
:1016900009B0F0BDF0B402001500DFF8FC020068EC
:1016A0008006FAD52020DFF8F07238600B00002B9E
:1016B0002BD0B3F5007F02D94FF4007600E01E0076
:1016C000F01C80080400002C1DD0DFF8CC0200685C
:1016D00010F4E00F0BD0DFF8C002006840F4E00027
:1016E00050F02000DFF8B072386000200EE0DFF824
:1016F000AC0200680005FAD5DFF8A4020068286093
:101700002D1D641EDFE79B1BD1E70120F0BC704755
:10171000F0B587B004000D0017001E00E4B2002CE5
:1017200002D1F6B2002E01D1042054E0984800788E
:10173000C00701D503204EE0002D01D104204AE06E
:101740009448007C002802D14FF400704743F6B261
:10175000012E1BD111208DF8000000208DF8010012
:10176000019701208DF80200F6B202966946012029
:1017700000F0B8FA002827D14FF400712800FFF7D5
:1017800089FF002820D0002006001DE012208DF8DF
:10179000000000208DF80100019701208DF8020063
:1017A000F6B202966946012000F09CFA00280BD19F
:1017B000F6B24FF4007000FB06F12800FFF76AFF55
:1017C000002801D000200600F6B2002E01D0012032
:1017D00000E0002040B207B0F0BD70B4020013007A
:1017E0000C00002C25D0B4F5007F02D94FF4007511
:1017F00000E02500641BE81C8508002DF1D0664838
:10180000006810F4E00F0AD06348006840F4E0007C
:1018100050F01000604E30605FF0FF300AE05F482B
:1018200000684005FBD518685D4E30601B1D6D1EBD
:10183000E3E7012070BC7047F0B587B004000D00ED
:1018400017001E00E4B2002C02D1F6B2002E01D126
:10185000042091E04E480078C00701D503208BE0BA
:101860004B480078400701D5022085E0002D01D1CA
:10187000042081E04748007C002802D14FF400702A
:101880004743F6B2012E1BD118208DF8000000202E
:101890008DF80100019700208DF80200F6B2029643
:1018A0006946012000F01EFA00283CD14FF4007177
:1018B0002800FFF792FF002835D00020060032E014
:1018C00019208DF8000000208DF8010001970020FC
:1018D0008DF80200F6B202966946012000F002FA85
:1018E000002820D1F6B24FF4007000FB06F128006A
:1018F000FFF773FF002801D000200600264800688B
:101900008007FBD52448006810F4E00F05D022487A
:10191000006850F4E000204908601F48006850F05B
:1019200032001D4908600D208DF8000000208DF860
:1019300001001848C068019000208DF802000020C6
:1019400002906946012000F0CDF9002801D0012065
:1019500012E003981349084201D001200CE00398DB
:1019600010F4F850B0F5106FDDD1F6B2002E01D0B2
:10197000012000E0002040B207B0F0BD0100C9B274
:10198000002901D0012001E00148007870470000E3
:101990002805FF1FC805FF1F30100B4024100B4007
:1019A00020100B400880D9FF0020704780B5002030
:1019B000DFF8C4170860DFF8C407006850F400308F
:1019C000DFF8B8170860DFF8B807DFF8B817086065
:1019D000DFF8B0070068C001FAD40020DFF8A817CC
:1019E00008605FF48130DFF8A41708602820DFF872
:1019F000A01708605FF00110DFF898170860DFF8A3
:101A0000980700F04DF8DFF89407006810F0030F16
:101A1000F9D140F24341802000F0E4FB40F2434121
:101A2000812000F0DFFB4FF48861822000F0DAFBB8
:101A300040F24341832000F0D5FB40F24341842033
:101A400000F0D0FB40F24341852000F0CBFB4FF685
:101A5000FF70DFF84C170860DFF84807DFF8481719
:101A60000860DFF82007006850F00060DFF8141706
:101A70000860DFF8100700680001FAD4DFF81C07DF
:101A80000068C00303D50120DFF8EC160860DFF81A
:101A90001007006850F08000DFF80417086001BDEF
:101AA000F0B580240F25DFF804773F684FF47A7C87
:101AB0000CFB07F75FF0FF3C63465FF0020C6146EA
:101AC000B1F5807F16D85FF0010C6246112A0FD263
:101AD00002FB01FC00FB0CFCBCEB070C6646002E75
:101AE00004D49E4202D233000C001500521CEDE7D4
:101AF0004900E5E7DFF88CC6DCF800C03CF0080CD4
:101B0000DFF880E6CEF800C0DFF878C6DCF800C069
:101B10006FF3131C5FEAC41E1EF47F4E5EEA0C0CCA
:101B2000B5F1010E5FEA0E1E1EF0F00E5EEA0C0C1F
:101B30005CF4602CDFF84CE6CEF800C0DFF85CC641
:101B4000DCF800C05FEA0C7CF8D5DFF838C6DCF8BA
:101B500000C05CF0080CDFF82CE6CEF800C0DFF81F
:101B600040C6DCF800C05CF4801CDFF834E6CEF838
:101B700000C0F0BD70B50400DFF83406217850F8DD
:101B80002100050015F1010F04D1EB21DFF8240637
:101B900000F002FCDFF80806006850F08000DFF873
:101BA00000160860DFF8F4050068C007FAD4606822
:101BB000DFF80416086035F440056078800510F4FD
:101BC000400005436078022801D155F40015A06853
:101BD000002820D015F44030B0F5403F01D055F436
:101BE0000015A078002801D055F01005A068022843
:101BF00001D355F02005A06810F1010F07D0A068AF
:101C0000000450F40070060055F0020505E0DFF80E
:101C1000AC05060001E000200600DFF87005066054
:101C20000020DFF89C150860DFF898050560DFF8F4
:101C300070050068DFF890150842F8D0DFF86005FD
:101C40000068DFF88415084001280BD0DFF8500544
:101C5000006840F4702050F00100DFF8441508607F
:101C600003203EE0DFF838050068000609D5DFF8FC
:101C70003005006850F00110DFF8241508600220DC
:101C80002FE0DFF81C050068C00309D5DFF8100558
:101C9000006850F00110DFF808150860032020E00C
:101CA00015F4403F14D0DFF824050068E06015F417
:101CB0004030B0F5803F0BD1DFF81405006820619B
:101CC000DFF8100500686061DFF80C050068A061AE
:101CD000DFF8CC04006850F00100DFF8C41408609D
:101CE000002070BD2DE9F04F89B004000D00AA4618
:101CF0000020814664B2002C0AD0022C00F004823D
:101D0000C0F08F81042C00F0BE81C0F099812CE2DC
:101D1000FFF74CFE0020060000208DF80000002098
:101D2000070000208DF802000020804600208DF87A
:101D3000010000208DF8040000208DF8050000202F
:101D4000029000208DF806000020039001A8FFF704
:101D500011FF002802D00120814608E240F24C40E9
:101D600000F052FB08208DF8040000208DF80500DB
:101D70004FF4D570029000208DF8060000200390EB
:101D800001A8FFF7F7FE8346BBF1000F08D10498C6
:101D90000299884202D001208146E8E10120804674
:101DA00001208DF801009DF80100002800F0FB8063
:101DB00037208DF8040000208DF8050000200290E7
:101DC00000208DF806000020039001A8FFF7D2FE46
:101DD0008346BBF1010F02DB01208146C7E1BBF165
:101DE000000F6DD500208DF80000002006000020B7
:101DF000804601208DF8040000208DF80500DFF8F2
:101E0000DC03029000208DF806000020039001A85A
:101E1000FFF7B0FE002802D001208146A7E1049818
:101E200010F0C040B0F1005F01D1012080460120D8
:101E3000070027208DF8040000208DF805004FF4DE
:101E40004060029000208DF806000020039001A859
:101E5000FFF790FE002802D00120814687E1049818
:101E6000000ACE2801D1012000E00020C0B20028E5
:101E700000F0998027208DF8040000208DF80500DF
:101E80004FF45060029000208DF80600002003906F
:101E900001A8FFF76FFE002802D00120814666E10D
:101EA0000498000AAA2801D1012000E00020C0B255
:101EB000002878D00020070001208DF8020072E091
:101EC00029208DF8040000208DF8050000200290E4
:101ED00000208DF806000020039001A8FFF74AFEBD
:101EE000002802D00120814641E1049810F4401FEF
:101EF00059D0002083460A2000F086FA1BF1010B1E
:101F000037208DF8040000208DF805000020029095
:101F100000208DF806000020039001A8FFF72AFE9C
:101F2000002802D00120814623E029208DF80400FA
:101F300000208DF805005FFA88F8B8F1000F02D094
:101F4000A648029002E05FF44010029000208DF855
:101F500006000020039001A8FFF70CFE002802D025
:101F60000120814605E00498002802D4BBF1640FEB
:101F7000C1DB4FFA89F9B9F1000F40F0F880BBF1ED
:101F8000640F02DB002080460DE0012006005FFAAE
:101F900088F8B8F1000F06D0002080460498400071
:101FA00001D501208046FFB2002F02D007207249E0
:101FB00008609DF80200002802D008206E490860E1
:101FC0009DF80000002802D004206B490860F6B29A
:101FD000002E0AD00220684908605FFA88F8B8F13C
:101FE000000F02D00320644908609DF8000000281B
:101FF0000DD0F6B2002E0AD005205F4908605FFAC6
:1020000088F8B8F1000F02D006205B4908607448D8
:10201000FFF746FD5948006850F400305749086002
:10202000A5E05046FFF7A6FD8346BBF1010F01DB9B
:1020300002208146BBF1000F01D50320814696E0C6
:10204000BAF1000F02D1052081461BE0504800681C
:10205000C0F341008346BBF1000F03D10020CAF852
:1020600000000FE0BBF1010F03D10120CAF800000E
:1020700008E0BBF1100F03D10220CAF8000001E014
:102080000620814673E0BAF1000F02D10520814697
:1020900039E04248006840F20731084231D1DAF8AD
:1020A000000000280AD13A48006830F0060038499C
:1020B0000860374800683649086024E0DAF8000014
:1020C00001280CD13248006830F006003049086021
:1020D0002F48006850F002002D49086013E0DAF83C
:1020E000000002280AD12A48006830F0060028497A
:1020F0000860274800682649086004E006208146F9
:1021000001E00720814632E0BAF1000F02D105203C
:10211000814629E01B48006850F0006019490860BA
:10212000184800680001FBD41D480068000608D567
:102130001B48006850F080001949086000200E49D3
:10214000086016480068C00307D50B4800680028DF
:1021500006D101200849086002E000200649086015
:1021600005480068CAF8000001E00420814648469E
:1021700040B209B0BDE8F08FC805FF1F30800440B1
:10218000008000012C100B40C0100B4004100B40CD
:1021900028100B4044100B40E093040024100B4027
:1021A00030100B40B3007F0034100B40DC05FF1FE4
:1021B000E4470000044B000008100B400002FFFF42
:1021C00000100B400C100B4001000E0010100B40D3
:1021D00014100B4018100B401C100B400000304036
:1021E00080F0FA0238B504000D002000C0B24009AA
:1021F000002806D0022812D00AD304281DD015D3F7
:1022000022E06148006850F400705F4908601FE0F8
:102210005D48006850F480605B49086018E05A48E7
:10222000006850F400605849086011E056480068A2
:1022300050F48050544908600AE05348006850F454
:1022400000505149086003E03921504800F0A4F8DB
:102250004F48E4B2611150F821004D49E4B26211D7
:1022600051F82210D1F8A010012214F01F039A4057
:102270001143C0F8A0104648E4B2611150F82100A3
:10228000E4B214F01F01424AE4B2631152F8232071
:10229000E4B214F01F0352F823202A4340F821200F
:1022A00031BD38B504000D002000C0B2400900283F
:1022B00006D0022812D00AD304281DD015D322E05C
:1022C0003148006850F400702F4908601FE02E4824
:1022D000006850F480602C49086018E02A480068C3
:1022E00050F400602849086011E02748006850F465
:1022F0008050254908600AE02348006850F40050E7
:102300002149086003E08621204800F045F8204874
:10231000E4B2611150F82100E4B214F01F011C4A2C
:10232000E4B2631152F82320E4B214F01F0352F810
:10233000232055F480731A4340F821201548E4B255
:10234000611150F821001349E4B2621151F82210D2
:102350004969012214F01F039A40914341610C48DE
:10236000E4B2611150F821000949E4B2621151F858
:102370002210D1F8A010012214F01F039A4011433B
:10238000C0F8A01031BD000038800440C84A0000E9
:10239000F804FF1F3004FF1FFEE701480078FEE746
:1023A00004ED00E030B4002100220023124C246828
:1023B00054F08074104D2C60104C246854F00104CB
:1023C0000E4D2C600E4C246821000E4C24684FF4F6
:1023D0007A75B4FBF5F404FB00F423005C182200CA
:1023E0008A4203D2064C2468A242FBD3044C2468E0
:1023F0009442FBD330BC7047FCED00E0001000E0DD
:10240000041000E0DC05FF1F10B504002000441E8E
:10241000002804D04FF47A70FFF7C4FFF6E710BD30
:1024200038B50400002564B22C2C04DB5721DFF8FA
:102430002005FFF7B1FFDFF81C0564B230F8240077
:102440000500ADB2E72D04DA0020DFF80C150870A6
:102450008CE0ADB2B5F5E67F04DC0120DFF8F814BE
:10246000087083E0ADB240F2B320854204DA022066
:10247000DFF8E414087079E0ADB2B5F5667F04DCEE
:102480000320DFF8D414087070E0ADB240F27F4052
:10249000854204DA0420DFF8C014087066E0ADB2AB
:1024A00040F26550854204DA0520DFF8AC1408706C
:1024B0005CE0ADB240F24B60854204DA0620DFF802
:1024C0009814087052E0ADB2B5F5E66F04DC072051
:1024D000DFF88414087049E0ADB240F61700854279
:1024E00004DA0820DFF8701408703FE0ADB240F65F
:1024F000FD00854204DA0920DFF85C14087035E03D
:10250000ADB240F6E310854204DA0A20DFF8481441
:1025100008702BE0ADB240F6C920854204DA0B20EA
:10252000DFF83414087021E0ADB240F6AF308542D8
:1025300004DA0C20DFF82014087017E0ADB240F682
:102540009540854204DA0D20DFF80C1408700DE088
:10255000ADB240F67B50854204DA0E20DFF8F81366
:10256000087003E00F20DFF8F0130870ADB2742D8F
:1025700004DA0020DFF8E013487086E0ADB2E72D02
:1025800004DA0120DFF8D01348707EE0ADB2B5F573
:10259000AD7F04DA0220DFF8C013487075E0ADB2F9
:1025A000B5F5E67F04DC0320DFF8AC1348706CE07F
:1025B000ADB2B5F5107F04DA0420DFF89C13487043
:1025C00063E0ADB240F2B320854204DA0520DFF8C3
:1025D0008813487059E0ADB240F22630854204DAE3
:1025E0000620DFF8741348704FE0ADB2B5F5667F92
:1025F00004DC0720DFF86013487046E0ADB240F21B
:102600000C40854204DA0820DFF84C1348703CE0A7
:10261000ADB240F27F40854204DA0920DFF838137A
:10262000487032E0ADB240F2F240854204DA0A204E
:10263000DFF82413487028E0ADB240F265508542BF
:1026400004DA0B20DFF8101348701EE0ADB2B5F5C8
:10265000BB6F04DA0C20DFF80013487015E0ADB250
:1026600040F24B60854204DA0D20DFF8EC1248702E
:102670000BE0ADB240F2BE60854203DA0E20B649EF
:10268000487002E00F20B4494870ADB21A2D03DA49
:102690000020B149887069E0ADB2332D03DA012022
:1026A000AD49887062E0ADB24C2D03DA0220AA4930
:1026B00088705BE0ADB2652D03DA0320A64988700F
:1026C00054E0ADB27E2D03DA0420A34988704DE0BA
:1026D000ADB2972D03DA05209F49887046E0ADB270
:1026E000B02D03DA06209C4988703FE0ADB2C92DB9
:1026F00003DA07209849887038E0ADB2E22D03DA9A
:1027000008209549887031E0ADB2FB2D03DA09202D
:10271000914988702AE0ADB2B5F58A7F03DA0A20C4
:102720008D49887022E0ADB2B5F5967F03DC0B20B1
:10273000894988701AE0ADB2B5F5A37F03DA0C20A1
:102740008549887012E0ADB2B5F5AF7F03DC0D208E
:10275000814988700AE0ADB2B5F5BC7F03DA0E207E
:102760007D49887002E00F207B498870ADB21A2D38
:1027700003DA00207849C87069E0ADB2332D03DA7E
:1027800001207549C87062E0ADB24C2D03DA022019
:102790007149C8705BE0ADB2652D03DA03206E4964
:1027A000C87054E0ADB27E2D03DA04206A49C870C7
:1027B0004DE0ADB2972D03DA05206749C87046E0B9
:1027C000ADB2B02D03DA06206349C8703FE0ADB268
:1027D000C92D03DA07206049C87038E0ADB2E22D98
:1027E00003DA08205C49C87031E0ADB2FB2D03DA92
:1027F00009205949C8702AE0ADB2B5F58A7F03DADD
:102800000A205549C87022E0ADB2B5F5967F03DCC9
:102810000B205149C8701AE0ADB2B5F5A37F03DAB9
:102820000C204D49C87012E0ADB2B5F5AF7F03DCA6
:102830000D204949C8700AE0ADB2B5F5BC7F03DA96
:102840000E204549C87002E00F204349C87031BDD1
:1028500070B5040000250026200040B2FFF7E0FD1F
:102860003E48007810F0FD003C4908703B48007875
:1028700050F01000394908703948007810F0FB001A
:10288000374908703648007850F0800034490870A5
:102890003348007850F038003149087031480078EA
:1028A000C006FBD42F480078C0F38100C0B20228D4
:1028B000F8D12D48006806002B48006850F47F00CE
:1028C0002949086029482A49086000200500EDB21E
:1028D000072D01DA6D1CFAE72348066025480078C9
:1028E0001C4964B201EB8401897811F007010843A7
:1028F0002049087020480078164964B201EB840131
:10290000C97811F01F0108431B4908701A48007864
:1029100050F0400018490870124800788006FBD536
:10292000104800784006FBD50D48007810F03F00B5
:102930000B4908700B480078C0F38100C0B203282F
:10294000F8D1044864B230F82400C0B270BD000071
:10295000144A00004404FF1FF404FF1F0140064016
:10296000004006400640064000F0014000007701AC
:1029700044800440044006400540064038B5040049
:102980000D0064B2002C06D0022C71D050D3032C61
:1029900000F09680E2E0DFF8FC04006850F0807000
:1029A000DFF8F01408606DB2002D0BD0022D15D0A9
:1029B0000ED3042D1ED017D3062D27D020D3072DDC
:1029C0002AD02FE04FF480614120FFF70BFC2EE06E
:1029D0004FF440710420FFF705FC28E04FF44071EC
:1029E0000520FFF7FFFB22E04FF480614420FFF752
:1029F000F9FB1CE04FF440710720FFF7F3FB16E0F2
:102A00004FF480616520FFF7EDFB10E04FF480612B
:102A10006620FFF7E7FB0AE04FF480616720FFF7CD
:102A2000E1FB04E09B21DFF87004FFF7B5FC9BE0BD
:102A3000DFF86004006850F00070DFF85814086098
:102A40006DB2002D02D0012D06D00BE04FF4407185
:102A50000820FFF7C7FB0AE04FF440710920FFF799
:102A6000C1FB04E0B821DFF83004FFF795FC7BE000
:102A7000DFF82004006850F08060DFF81814086068
:102A8000DFF81804006850F08070DFF81014086058
:102A90006DB2002D02D0012D06D00BE04FF4407135
:102AA0003220FFF79FFB0AE04FF440713320FFF71D
:102AB00099FB04E0D621DFF8E003FFF76DFC53E05B
:102AC000DFF8D803006850F00070DFF8D01308601A
:102AD0006DB2002D0BD0022D15D00ED3042D1ED0BB
:102AE00017D3062D27D020D3072D2AD02FE04FF45F
:102AF00080616020FFF776FB2FE04FF4806161205A
:102B0000FFF770FB29E04FF4C0618720FFF76AFBF5
:102B100023E04FF4C0618820FFF764FB1DE04FF411
:102B2000C0618920FFF75EFB17E04FF4C0618A2087
:102B3000FFF758FB11E04FF4C0618B20FFF752FB09
:102B40000BE04FF4C0618C20FFF74CFB05E040F236
:102B50004F11DFF84403FFF71FFC05E04FF4AA71A3
:102B6000DFF83403FFF718FC31BD2DE9F84F0400FE
:102B70000D0016001F005FF000085FF000095FF015
:102B8000000A5FF0000B64B2002C02D064B2032C88
:102B900002D16DB2082D0EDB64B2012C02D064B2FA
:102BA000022C02D16DB2022D05DB40F26D11DFF86F
:102BB000E802FFF7F1FB290049B2200040B2FFF71D
:102BC000DDFEDFF8DC0200684FF47A71484383468B
:102BD0005FEA1B40B0FBF6F08146002080461FFAFA
:102BE00089F9484650FA08F0012802DB18F101087B
:102BF000F5E75FFA88F8B8F1080F05DB4FF4BE710E
:102C0000DFF89402FFF7C8FB584630FA08F0B0FB33
:102C1000F6F0814664B2002C05D0022C1BD00ED3F6
:102C2000032C24D02FE01FFA89F919F1010000FBD1
:102C300007F042F21071B0FBF1F0824629E01FFA72
:102C400089F919F1010000FB07F042F21071B0FBA5
:102C5000F1F082461DE01FFA89F919F1010000FB2D
:102C600007F042F21071B0FBF1F0824611E01FFA5A
:102C700089F919F1010000FB07F042F21071B0FB75
:102C8000F1F0824605E040F29111DFF80C02FFF707
:102C900083FBDFF8100264B250F824006DB200EB41
:102CA000C500DFF8001264B251F824106DB201EBD8
:102CB000C501C96831F00401C160DFF8E80164B200
:102CC00050F824006DB200EBC500DFF8D81164B2F3
:102CD00051F824106DB201EBC501C96851F028010B
:102CE000C1605FFA88F818F0070050F00800DFF8BC
:102CF000B41164B251F8241008601FFA89F9DFF8A2
:102D0000A40164B250F82400C0F808900020DFF855
:102D1000941164B251F82410C864DFF8880164B2D9
:102D200050F824006DB200EBC5001FFA8AFAC0F813
:102D300010A00020DFF86C1164B251F82410486034
:102D4000BDE8F18F2DE9F04104000D0016000027C9
:102D50005FF0000864B2002C02D064B2032C02D1F0
:102D60006DB2082D0EDB64B2012C02D064B2022CCD
:102D700002D16DB2022D05DB40F2B111DFF818016E
:102D8000FFF70AFB64B2002C05D0022C19D00DD33A
:102D9000032C21D02BE042F21170864205D34FF470
:102DA000DB71DFF8F400FFF7F7FA26E042F211706A
:102DB000864205D340F2B911DFF8DC00FFF7ECFAE8
:102DC0001BE042F21170864205D34FF4DE71DFF84A
:102DD000C800FFF7E1FA10E042F21170864205D315
:102DE00040F2BF11DFF8B000FFF7D6FA05E04FF46C
:102DF000E171DFF8A400FFF7CFFADFF8A80064B2B2
:102E000050F8240080688046B8F1000FF5D064B215
:102E1000002C05D0022C17D00CD3032C1ED027E099
:102E200018F1010000FB06F042F21071B0FBF1F066
:102E3000070023E018F1010000FB06F042F21071D8
:102E4000B0FBF1F0070019E018F1010000FB06F0FB
:102E500042F21071B0FBF1F007000FE018F1010031
:102E600000FB06F042F21071B0FBF1F0070005E044
:102E70004FF4EE71DFF82000FFF78EFADFF8240040
:102E800064B250F824006DB200EBC5000761BDE8E4
:102E9000F08100003C8004409C49000030800440E8
:102EA000E005FF1F2004FF1F0000000000000000DD
:102EB000000000000000000000000000000000070B
:102EC000FC0000000000000000000000000000FF07
:102ED000FFE000000000000000000000000007FF0D
:102EE000FFFC0000000000000000000000001FFFC9
:102EF000FFFF0000000000000000000000007FFF56
:102F0000FFFFC00000000000000000000000FFF80C
:102F100001FFE00000000000000000000003FF804F
:102F2000003FF80000000000000000000007FC0067
:102F30000007FC000000000000000000000FF80087
:102F40000001FE000000000000000000001FE00083
:102F50000000FF000000000000000000003FC00073
:102F600000003F800000000000000000007F00071C
:102F7000FC001FC0000000000000000000FE003F39
:102F8000FF800FE0000000000000000000FC00FFD8
:102F9000FFE007E0000000000000000001F803FF70
:102FA000FFF803F0000000000000000003F007FF3E
:102FB000FFFC01F8000000000000000003F01FFC0F
:102FC000E7FF01F8000000000000000007E01FE13B
:102FD000F0FF80FC000000000000000007C03F81FF
:102FE000F03F807C00000000000000000FC07F0167
:102FF000F81FC07E00000000000000000F80FC03EE
:10300000F807E03E00000000000000000F80FC0315
:10301000F807E03E00000000000000001F81F807F4
:10302000FC03F03F00000000000000001F01F0075B
:10303000FC01F81F00000000000000001F03F00763
:10304000FC01F81F00000000000000001F03FFFF4C
:10305000FFFFF81F00000000000000003E03FFFF1C
:10306000FFFFF80F80000000000000003E07FFFF98
:10307000FFFFFC0F80000000000000003E07FFFF84
:10308000FFFFFC0F80000000000000003E07DFFF94
:10309000FFFF7C0F80000000000000003E07C7FF1C
:1030A000FFFE7C0F80000000000000003E07C3FF11
:1030B000FFF87C0F80000000000000003E07C1FF09
:1030C000FFF07C0F80000000000000003E07C07F82
:1030D000FFC07C0F80000000000000003E07C07FA2
:1030E000FFC07C0F80000000000000003E03E07F76
:1030F000FFC0FC0F80000000000000001F03E0FF85
:10310000FFE0F81F00000000000000001F03F0FFB8
:10311000FFE0F81F00000000000000001F01F0FFAA
:10312000FFE1F81F00000000000000001F81F9FF10
:10313000BFF3F03F00000000000000000F80FDFF23
:103140001FF7F03E00000000000000000F80FDFCB3
:1031500007F7E03E00000000000000000FC07FF80D
:1031600003FFC07E000000000000000007C03FE039
:1031700000FF807C000000000000000007E03FE04E
:1031800000FF80FC000000000000000003F01FFCB6
:1031900007FF00F8000000000000000003F007FF38
:1031A000FFFC01F8000000000000000001F803FF30
:1031B000FFF803F0000000000000000000FC00FF2A
:1031C000FFE007F0000000000000000000FE003FEC
:1031D000FF800FE00000000000000000007F0007FB
:1031E000FC001FC00000000000000000003F800045
:1031F00000003F800000000000000000001FE00011
:103200000000FF000000000000000000000FF000C0
:103210000001FE0000000000000000000007FC00AC
:103220000007FC0000000000000000000003FF8019
:10323000003FF80000000000000000000000FFF068
:1032400001FFF000000000000000000000007FFF10
:10325000FFFFC000000000000000000000001FFF92
:10326000FFFF00000000000000000000000007FF5A
:10327000FFFC00000000000000000000000000FF54
:10328000FFE0000000000000000000000000000F50
:10329000FE00000000000000000000000000000030
:1032A00000000000000000000021DFF8A4235268A5
:1032B000126852F48012DFF898335B681A600022BB
:1032C0001100C9B208292DDADFF884235268126888
:1032D00032F40012DFF878335B681A6002060AD510
:1032E000DFF86C235268126852F40002DFF8603392
:1032F0005B681A6009E0DFF858235268126832F4FC
:103300000002DFF84C335B681A60DFF84423526830
:10331000126852F40012DFF838335B681A60491CF7
:103320004000CEE770470021DFF82423526812687E
:1033300032F48012DFF818335B681A600022110043
:10334000C9B208292DDADFF808235268126832F46E
:103350000012DFF8FC325B681A6002060AD5DFF85B
:10336000F0225268126852F40002DFF8E4325B681F
:103370001A6009E0DFF8D8225268126832F40002BD
:10338000DFF8CC325B681A60DFF8C422526812683A
:1033900052F40012DFF8B8325B681A60491C400032
:1033A000CEE7704738B504000D00B5F15000C0B24B
:1033B000FFF7B9FF2000C0B2000950F01000C0B202
:1033C000FFF7B1FF14F00F0050F00100C0B2FFF79B
:1033D000AAFF31BD38B500200500EDB2082D16DA80
:1033E000B5F15000C0B2FFF79EFF0120FFF79BFF31
:1033F0001020FFF798FF00200400E4B2802C04DACC
:103400000020FFF751FF641CF7E76D1CE5E731BDB5
:1034100080B500220121352000F01CF90022012195
:10342000372000F017F900220121332000F012F9B3
:1034300000220121342000F00DF9DFF81402406869
:10344000006850F40010DFF8081249680860DFF8DF
:1034500000024068006830F40020DFF8F411496889
:103460000860322000F074F9DFF8E4014068006879
:1034700050F40020DFF8D81149680860AE20FFF74B
:1034800052FF0020FFF74FFF1020FFF74CFF4020B6
:10349000FFF749FF8120FFF746FFCF20FFF743FFEB
:1034A000A120FFF740FFC820FFF73DFFA620FFF750
:1034B0003AFFA820FFF737FF3F20FFF734FFD32064
:1034C000FFF731FF0020FFF72EFFD520FFF72BFF7E
:1034D0008020FFF728FFD920FFF725FFF120FFF715
:1034E00022FFDA20FFF71FFF1220FFF71CFFDB206F
:1034F000FFF719FF4020FFF716FF2020FFF713FF0B
:103500000220FFF710FF8D20FFF70DFF1420FFF7BB
:103510000AFFA420FFF707FFA620FFF704FFAF2054
:10352000FFF701FFFFF756FF00210020FFF73AFFEA
:1035300001BD2DE9F04104005FF0000800250026E0
:10354000002700208046B8F1080F80F27F804046B7
:103550000100C9B20020FFF725FF00200500102D53
:1035600071DA07200600002E6BD4802000FB08F0E3
:103570002044405D0121B14008403041802101FBE1
:1035800008F121442944097C0122B2401140314113
:1035900010EB4100802101FB08F12144294491F8FE
:1035A00020100122B2401140314110EB81008021F6
:1035B00001FB08F12144294491F830100122B24066
:1035C0001140314110EBC100802101FB08F1214481
:1035D000294491F840100122B2401140314110EBD2
:1035E0000110802101FB08F12144294491F8501079
:1035F0000122B2401140314110EB4110802101FB0A
:1036000008F12144294491F860100122B240114090
:103610003141402202FB0100802101FB08F12144DD
:10362000294491F870100122B240114031418022AA
:1036300002FB010007003800C0B2FFF735FE761E1E
:1036400091E76D1C8BE718F101087CE7BDE8F0817C
:103650003004FF1F70B504000D0016004FF4807198
:103660002000C0B2FEF7BEFD6DB2002D11D136486C
:10367000E4B2611150F821003349E4B2621151F80B
:1036800022104969012214F01F039A4091434161BD
:1036900036E02D48E4B2611150F821002A49E4B225
:1036A000621151F822104969012214F01F039A4057
:1036B00011434161F6B2002E11D12348E4B26111E9
:1036C00050F821000068012114F01F029140884346
:1036D0001D49E4B2621151F82210086010E01A4846
:1036E000E4B2611150F821000068012114F01F02BA
:1036F000914008431449E4B2621151F82210086065
:1037000070BD38B5040000250F48E4B2611150F8CF
:103710002100406914F01F01C840C00703D5812172
:103720000A48FEF739FE0848E4B2611150F821005A
:10373000006914F01F01C84010F0010005002800C6
:10374000C0B232BD000000003004FF1FD8490000A5
:1037500010B400210022084B1B8800242100814264
:1037600008D2002422009A4202D200BF521CFAE77B
:10377000491CF4E710BC7047E605FF1F10B50400B4
:1037800064B26011C0B2002802D0012817D02DE029
:10379000DFF8AC02006850F00060DFF8A4120860A7
:1037A000DFF8A002006830F09000DFF8981208609F
:1037B000DFF890020068DFF88C1208601BE0DFF889
:1037C0008802006850F00060DFF87C120860DFF8C3
:1037D0007402006830F41040DFF868120860DFF807
:1037E00064020068DFF85C12086004E03021DFF852
:1037F0005C02FEF7D1FD64B22000002800F08C804E
:10380000012800F08980032800F08680082851D024
:10381000092854D00A2857D00B285AD00C285DD03C
:103820000D2860D00E2863D00F2866D0102873D0E2
:10383000112867D012286AD013286DD014286BD0B5
:103840001A2869D01D2867D01E2865D0202800F0CE
:10385000A580212800F0A280232800F09F80242842
:103860005BD025285ED0262861D0272864D0282860
:1038700067D029286AD02A286DD02B2870D02C2810
:1038800073D02D2876D02E2879D02F287CD03028C0
:1038900000F0848031287CD0322800F07F803328EB
:1038A0007CD034287AD03A2878D03D2876D03E286B
:1038B00074D074E000212020FEF794FC73E0002116
:1038C0002120FEF78FFC6EE000210720FEF78AFC26
:1038D00069E000210820FEF785FC64E00021222039
:1038E000FEF780FC5FE000212320FEF77BFC5AE01E
:1038F00000214020FEF776FC55E000214120FEF734
:1039000071FC50E000219820FEF76CFC4BE0002198
:103910009920FEF767FC46E045E000218020FEF795
:1039200061FC40E000218120FEF75CFC3BE00021CF
:103930008220FEF757FC36E000218320FEF752FC80
:1039400031E000212020FEF74DFC2CE00021212059
:10395000FEF748FC27E000212420FEF743FC22E08C
:1039600000212520FEF73EFC1DE000212620FEF769
:1039700039FC18E000212720FEF734FC13E0002179
:103980002A20FEF72FFC0EE000212B20FEF72AFC58
:1039900009E000211120FEF725FC04E003E0A1214D
:1039A0002A48FEF7F9FC10BD10B4294A40B2431171
:1039B00052F8232049B28B0013F00C0353F050034C
:1039C0009360234A40B2431152F823200423D3606A
:1039D00040B210F01F0252F040021D4B40B24411A1
:1039E00053F824301A6010BC704770B504000D0005
:1039F0000026290049B2200040B2FFF7D5FF144845
:103A000064B2611150F8210000680006F7D5104833
:103A100064B2611150F82100006906000C4864B2DC
:103A2000611150F82100006830F08000084964B24C
:103A3000621151F822100860300080B270BD0000A1
:103A40003C80044018800440308004402449000039
:103A50001004FF1F80B56A484068406950F4800038
:103A600067494968486166484068006850F48000CA
:103A700063494968086062488068006850F0010046
:103A80005F49896808600A2000F0FAF85C484068DD
:103A9000006830F480005A49496808600A2000F044
:103AA000EFF857488068006840084000544989682A
:103AB000086001BD80B552484068406950F48000FC
:103AC0004F49496848614E484068006830F48000BA
:103AD0004B49496808604A488068006850F0010016
:103AE0004749896808600A2000F0CAF844484068DD
:103AF000006850F480004249496808600A2000F0DC
:103B0000BFF801BD70B50400002500263C484068A0
:103B1000406950F480003A49496848610020050036
:103B2000EDB2082D30DAE4B214FA05F0000608D53B
:103B300033484068006850F48000314949680860A3
:103B400007E02F484068006830F480002C4949683D
:103B500008600A2000F094F829488068006850F056
:103B600001002749896808600A2000F089F8244884
:103B700080680068400840002149896808600A2080
:103B800000F07EF86D1CCBE70A2000F079F81C48A5
:103B90004068006850F480001949496808600A20AC
:103BA00000F06EF816488068006850F00100144973
:103BB000896808600A2000F063F81148406840698D
:103BC00030F480000E49496848610D48406800693A
:103BD000C0F38050002802D00020060001E0012040
:103BE000060007488068006840084000044989686A
:103BF00008600A2000F044F83000C0B270BD000038
:103C00003004FF1F70B504000D001600FFF722FFFF
:103C10002000C0B2FFF776FF2800C0B2FFF772FFA6
:103C20003000C0B2FFF76EFFFFF744FF70BD80B5F4
:103C300000226B21D020FFF7E5FF00221921D020C0
:103C4000FFF7E0FF00221A21D020FFF7DBFF092257
:103C50001C21D020FFF7D6FF18221B21D020FFF710
:103C6000D1FF01BD80B5002201214020FFF7F2FC09
:103C7000002201213620FFF7EDFCFFF7D8FF01BD40
:103C80000100481E89B2002901D000BFF8E7704743
:103C90002DE9F84304000D00002600275FF000081E
:103CA0005FF0000964B2002C06D0022C26D014D399
:103CB000042C45D033D354E06948006850F4806048
:103CC000674908604FF440710F20FEF78BFA4FF4FC
:103CD00040710E20FEF786FA47E06148006850F414
:103CE00000605F4908604FF440714320FEF77AFAA4
:103CF0004FF440714420FEF775FA36E058480068EA
:103D000050F48050564908604FF440716220FEF72D
:103D100069FA4FF440716320FEF764FA25E05048D9
:103D2000006850F400504E4908604FF44071502034
:103D3000FEF758FA4FF440715120FEF753FA14E0A1
:103D40004848006850F48060464908604FF440716C
:103D50009920FEF747FA4FF440719820FEF742FA97
:103D600003E09A214048FEF717FB404864B250F840
:103D70002400C07810F0F3003C4964B251F82410DC
:103D8000C8700020394964B251F82410887064B2B8
:103D9000002C02D064B2012C06D1354800684FF4E3
:103DA0007A714843070005E0324800684FF47A71A1
:103DB000484307002801B7FBF0F080461FFA88F857
:103DC000B8F5005F02DB41F6FF708046B7FBF5F007
:103DD0001FFA88F8B0EB081081461FFA89F9B9F18B
:103DE000200F03DBB6212048FEF7D6FA1F4864B245
:103DF00050F82400007810F0E0000600C8F304201A
:103E000030431A4964B251F824100870174864B25C
:103E100050F8240080F80180144864B250F824005F
:103E2000807A10F0E000060019F01F0030430F49BF
:103E300064B251F82410887288200C4964B251F899
:103E400024100874094864B250F82400C07850F077
:103E50000C00064964B251F82410C870BDE8F18323
:103E60003480044028800440404B00000C05FF1FB4
:103E7000DC05FF1FE005FF1F012110F01F0291402C
:103E8000654A40B2430942F823107047012110F0FF
:103E90001F029140614A40B2430942F82310704723
:103EA00080B55F480068000311D55D48006850F494
:103EB00000205B4908603D20FFF7E8FF5848006894
:103EC00050F40020564908603D20FFF7D5FF01BDA2
:103ED00080B554480068000411D55248006850F479
:103EE0000040504908603E20FFF7D0FF4D48006871
:103EF00050F400404B4908603E20FFF7BDFF01BD74
:103F000080B54948006850F00100474908603020FA
:103F1000FFF7BCFF45480068401C4449086043481F
:103F20000068B0F5FA7F03DD4FF4FA703F4908608E
:103F30003E480068B0F5FA7F0FD100203B49086089
:103F40003B480078401C3A490870394890F9000015
:103F5000042802DB002036490870354890F900003B
:103F6000002808D0324890F90000012803D03048DA
:103F700090F9000002282F4890F90000002805D190
:103F80002D480068401C2C49086004E02A4800685D
:103F9000401E2949086028480068B0F57A6F07DD9F
:103FA0004FF47A602449086001202249087012E029
:103FB00021480068002806D500201F49086000201D
:103FC0001C49087007E01C4800681B490860194834
:103FD00000781849087018480068010089B200206C
:103FE00000F071F814480068D0F57A6189B20120B8
:103FF00000F069F8102000F029F91049086010203D
:1040000000F034F90848006850F0010006490860E3
:104010003020FFF731FF01BD00E100E080E100E06A
:10402000A0B00440A0C004400C710340BC05FF1FB9
:10403000E905FF1FEA05FF1FC405FF1FC005FF1F9D
:1040400010B5040064B2022C03DB21212A48FEF7DC
:10405000A3F964B2002C02D0012C07D00DE0274850
:10406000006850F48050254908600AE02348006841
:1040700050F400502149086003E02C211E48FEF74F
:104080008BF9E0201E4964B251F8241081F8210018
:1040900000201B4964B251F8241081F8220000204E
:1040A000174964B251F8241081F823000020144904
:1040B00064B251F8241048700020114964B251F8DC
:1040C0002410087010BD38B504000D00ADB2B5F570
:1040D000805F03DB53210848FEF75EF9280080B2B9
:1040E000000A074964B251F824104870044864B2C9
:1040F00050F82400057031BD604900002C80044058
:104100001804FF1F012110F01F029140DFF88021E9
:1041100040B2430942F8231070472DE9F8430400E8
:104120000D0016001F005FF000085FF00109B6F5F2
:10413000004F02D347F6FF7006005D4864B240F8B6
:1041400024605448006850F0020052490860524808
:10415000006850F002005049086056484F4964B268
:104160006201885053484D4964B2620111440861AC
:1041700000204A4964B26201114488800020474906
:1041800064B26201114488825FFA88F85FEA08200D
:1041900010F4E0605FFA88F818F0070108433F491F
:1041A00064B262011144C88030004004400C3B49B5
:1041B00064B262011144C88230004004400C3749A7
:1041C00064B262011144C8833548006830F0800051
:1041D000334908605FFA89F9304864B261010844E4
:1041E000C0F8089070422D4964B262011144C86061
:1041F00070422A4964B26201114488610A20274949
:1042000064B26201114488832800C0B24009313091
:1042100050F08000234964B2085500220021280094
:10422000C0B2FFF717FA57F481712800C0B2FDF74A
:10423000D9FF1D4800680121A14008431A490860C0
:10424000200040B2FFF75EFFBDE8F18310B401002B
:104250000020174A49B252F82120104B49B24C01B4
:104260002344DB8AD21A100010BC70470F4909683A
:104270000122824011430D4A11600D4940B251F8AC
:104280002010064A40B243011A44D1827047000010
:1042900000E100E0408004403C8004400090004089
:1042A00000800040001002400C800040248000404C
:1042B0003C05FF1F0C0004402DE9F84FDFF8EC909F
:1042C000DFF8ECA03A48394988420FD000208346F5
:1042D000BBF5826F0AD2D9F80000CAF8000019F1C4
:1042E00004091AF1040A1BF1010BF1E7304800F050
:1042F0007BF8304804003048050030480600701B49
:1043000083465846B0F1010B002804D0287820706D
:104310006D1C641CF5E72A4807002A488046B8EB64
:10432000070083465846B0F1010B002803D0002057
:1043300038707F1CF6E724482449254A531A9B46C7
:104340005B46B3F1010B002B04D00B780370491CC2
:10435000401CF5E7BDE8F18F80B52520FEF778FA1F
:104360001C4908801B4800884FF47A7148431A4959
:1043700008601948006819490968C1F30361491CBC
:10438000B0FBF1F01649086001BD80B51548006822
:1043900050F470001349086000F04EF8FFF78CFFEE
:1043A000FFF7DAFF00F058F8FEE700000000000019
:1043B0000000FF1F1004FF1FC8460000E447000074
:1043C0002C05FF1FEC05FF1FEC05FF1F7C4C0000B8
:1043D0007C4C0000E605FF1FDC05FF1F4480044005
:1043E000E005FF1F88ED00E010B504004FF40070F9
:1043F00094FBF0F100FB1140002803D01821034882
:10440000FDF7CAFF0248046010BD0000504A0000DA
:1044100008ED00E00020EFF31181080072B64CF2C5
:1044200020510B4A11804DF62811094A1180C0B263
:10443000002800D162B6704780B5FFF7EBFF054852
:1044400000884FF6FE7108400249088001BD000057
:104450000E2005400020054010B5ADF58B6D694676
:104460000020FCF7DEFE0400132229498CA8FCF78B
:10447000FDFE040000F0A4F84120FFF742F92549B1
:10448000086001210D20FFF7B0FA234908800121BF
:104490002F20FFF7AAFA20494880204890F9000011
:1044A000002805D11E480068401C1D49086004E032
:1044B0001B480068401E1A4908601948006842F20B
:1044C0001171884207DB42F2107015490860012023
:1044D0001249087012E012480068002806D5002032
:1044E0000F49086000200D49087007E00C4800687B
:1044F0000B490860094800780849087008480268B4
:1045000003210020FEF71EFC0648FFF712F8B3E770
:10451000644C00003005FF1F3805FF1FE805FF1F32
:104520003405FF1FA82E0000012110F01F0291404A
:104530001F4A40B2430942F82310704710B440B2FA
:10454000002808D50A011B4B40B210F00F04234489
:1045500003F8042C03E00A01174B40B21A5410BCB4
:10456000704780B55FF430215320FDF79AFE00219B
:104570003D20FFF7E3FF3D20FFF7D6FF5FF430213A
:104580006F20FDF78EFE01213E20FFF7D7FF3E2072
:10459000FFF7CAFF09480168002000F05DF802211A
:1045A0003020FFF7CBFF3020FFF7BEFF01BD00003A
:1045B00000E100E018ED00E000E400E0E005FF1F8E
:1045C00080B572B60D20FFF7D9F82F20FFF7D6F887
:1045D0000020FFF735FD0120FFF732FD002200210A
:1045E0004120FFF737F8002200216D20FFF732F855
:1045F000002201212620FFF72DF840F2EE2332227F
:1046000000210220FEF7B1FA002201214320FFF72A
:1046100021F8002201214220FFF71CF84FF47A73A1
:1046200043F6982203210020FEF79FFA5FF48033BF
:1046300047F6FF7220211020FFF76FFD5FF4E13194
:104640000420FFF725FBFEF7E3FEFFF70BFBFFF768
:1046500088FF62B601BD000038B504000D0064B2E9
:10466000042C01DA002D03D11D211348FDF794FE1F
:104670001248006850F400001049086010480068B3
:10468000800880000E490860681E0E4964B222014D
:1046900088500C4864B221010844C06850F0010001
:1046A000084964B222011144C8600320054964B27C
:1046B00022011144886031BD8C4A00003C800440D6
:1046C000007003400071034000B0034000B00B4095
:1046D00000C00C4000D00C4000800340009003401C
:1046E00000A0034000900B4000F00F4040F00F404E
:1046F00080F00F40C0F00F4000F10F404B0005026A
:104700005000040055000401580005055A00040239
:104710005F00040364000508690004056E000406D8
:104720007100050B73000407780004087D00050E76
:104730008200040A8700040B8A0005118C00040C17
:104740009100040D960005149B00040FA0000410B6
:10475000A3000517A5000411AA000412AF00051A52
:10476000B4000414B9000415BC00051DBE000416F5
:10477000C3000417C8000418CD000419D200041A9D
:10478000D5000312D700041BDC00041CE100041D4B
:10479000E600041EEB00041FEE000316FA000318E7
:1047A0000701031A1301031C2001031E0001070760
:1047B0000090044000A0044000B0044000C0044049
:1047C00000D0044000A0064000B0064000C00640F3
:1047D00000D0064000A00E40FFFFFFFFFFFFFFFFDD
:1047E00001000000000000000000000100000902BC
:1047F00000001A03000000040000020500001A0671
:1048000000001B0700001A08000009090000090A3F
:1048100000001A0B0000DB0C00001A0DFFFFFFFF69
:104820000000000F00001A1000001A1104001A12F4
:10483000FFFFFFFF00001A14FFFFFFFF00001A1622
:1048400000001A1700001A1804001A1900001A1A9A
:1048500000001A1B00001B1C00001B1D00001A1E7C
:10486000FFFFFFFF00001A2000001A2100001A229B
:1048700000001A2300001A2400001A2500001B263D
:104880000000022700001A280000022900001B2A4D
:10489000FFFFFFFFFFFFFFFFFFFFFFFFFFFFFFFF28
:1048A000FFFFFFFFFFFFFFFFFFFFFFFFFFFFFFFF18
:1048B00000001A3300001A3400001A35FFFFFFFF12
:1048C00000001A3700001B38FFFFFFFFFFFFFFFF4C
:1048D000FFFFFFFF00001B3C00001B3DFFFFFFFF31
:1048E000FFFFFFFF19E050F8041BCB0744BFA9F1FD
:1048F00001035918121F0023042A41F8043BF9D27E
:104900005FEA827C0B4604D54FF0000CA1F800C092
:104910009B1CD10744BF0021197050F8042B002ABA
:10492000E1D17047443A5CCAAED2BBBDEC5C4D43AA
:1049300055BFE25CBFAAB7A25C4B36585C4B3658F9
:104940005F4941525F4C49425C436869705C5372F5
:10495000635C4D4B36585F4144432E6300000000BA
:10496000443A5CCAAED2BBBDEC5C4D4355BFE25C81
:10497000BFAAB7A25C4B36585C4B36585F494152D0
:104980005F4C49425C436869705C5372635C4D4B99
:1049900036585F4441432E6300000000443A5CCA2D
:1049A000AED2BBBDEC5C4D4355BFE25CBFAAB7A223
:1049B0005C4B36585C4B36585F4941525F4C49421C
:1049C0005C436869705C5372635C4D4B36585F465C
:1049D000544D2E6300000000443A5CCAAED2BBBD09
:1049E000EC5C4D4355BFE25CBFAAB7A25C4B3658A6
:1049F0005C4B36585F4941525F4C49425C436869A1
:104A0000705C5372635C4D4B36585F4750494F2E74
:104A100063000000443A5CCAAED2BBBDEC5C4D43BF
:104A200055BFE25CBFAAB7A25C4B36585C4B365808
:104A30005F4941525F4C49425C436869705C537204
:104A4000635C4D4B36585F4D43472E6300000000BA
:104A5000443A5CCAAED2BBBDEC5C4D4355BFE25C90
:104A6000BFAAB7A25C4B36585C4B36585F494152DF
:104A70005F4C49425C53746172745C4D4B36585CB8
:104A80004D4B36585F4D6973632E6300443A5CCAE0
:104A9000AED2BBBDEC5C4D4355BFE25CBFAAB7A232
:104AA0005C4B36585C4B36585F4941525F4C49422B
:104AB0005C436869705C5372635C4D4B36585F5061
:104AC00049542E6300000000443A5CCAAED2BBBD1C
:104AD000EC5C4D4355BFE25CBFAAB7A25C4B3658B5
:104AE0005C4B36585F4941525F4C49425C436869B0
:104AF000705C5372635C4D4B36585F504F52542E6E
:104B000063000000443A5CCAAED2BBBDEC5C4D43CE
:104B100055BFE25CBFAAB7A25C4B36585C4B365817
:104B20005F4941525F4C49425C436869705C537213
:104B3000635C4D4B36585F534448432E630000007E
:104B4000443A5CCAAED2BBBDEC5C4D4355BFE25C9F
:104B5000BFAAB7A25C4B36585C4B36585F494152EE
:104B60005F4C49425C436869705C5372635C4D4BB7
:104B700036585F554152542E6300000080B500F056
:104B800015F802000023DB431068984204D011009E
:104B90000220ABBE002010605068984204D0111D66
:104BA0000220ABBE0020506001BD000000487047ED
:104BB0002005FF1F10B5074979441831064C7C4485
:104BC000163404E00A68081D114488470146A142D2
:104BD000F8D110BD2C000000380000004EF68851BE
:104BE000CEF20001086840F470000860BFF34F8FF8
:104BF000BFF36F8F4FF00070E1EE100A70470000B6
:104C0000E5FCFFFFC00000002C05FF1F00000000B6
:104C100000F00BF8002801D0FFF7CCFF0020C046C1
:104C2000C046FFF719FC00F002F80120704700F0C1
:104C300001B800000746384600F002F8FBE7000024
:104C400080B5FFF79BFF024A11001820ABBEFBE7BF
:104C500026000200222A2B2C3A3B3C3D3E3F5B5D66
:104C60007C7F0000303A2F4D4B36362E747874001E
:0C4C7000C046C046FFF7B2FFFFF7CAFFC6
:0400000500004C713A
:00000001FF
