:10000000F8FF022011040000272900002729000022
:1000100027290000272900002729000027290000A0
:100020002729000027290000272900002729000090
:100030002729000027290000272900002729000080
:100040002729000027290000272900002729000070
:100050002729000027290000272900002729000060
:100060002729000027290000272900002729000050
:100070002729000027290000272900002729000040
:100080002729000027290000272900002729000030
:100090002729000027290000272900002729000020
:1000A0002729000027290000272900002729000010
:1000B0002729000027290000272900002729000000
:1000C00027290000272900002729000027290000F0
:1000D00027290000272900002729000027290000E0
:1000E00027290000272900002729000027290000D0
:1000F00027290000272900002729000027290000C0
:10010000355E00002729000027290000272900006C
:10011000272900002729000027290000272900009F
:10012000272900002729000027290000272900008F
:1001300027290000D55D0000055E0000272900008A
:10014000272900002729000027290000272900006F
:10015000272900002729000027290000272900005F
:10016000272900002729000027290000272900004F
:10017000272900002729000027290000272900003F
:10040000FFFFFFFFFFFFFFFFFFFFFFFFFEFFFFFFFD
:100410004FF000004FF000014FF000024FF00003DA
:100420004FF000044FF000054FF000064FF00007BA
:100430004FF000084FF000094FF0000A4FF0000B9A
:100440004FF0000C62B605F0B4FDFEE730B40300D7
:100450000C0015006A1E002D04D025781D70641C48
:100460005B1CF6E730BC704710B403001400621E3A
:10047000002C02D019705B1CF8E710BC704770B4F8
:1004800003001C000D0000201600721E002E06D076
:1004900020782E78801B6D1C641C0028F4D070BC62
:1004A000704790F90020002A05D090F900208A4278
:1004B00001D0401CF5E790F900007047F8B5040042
:1004C0000D00E06A0600AE4232D02079002821D02B
:1004D0000123320014F13001607801F079FC00282A
:1004E00001D0012025E000202071206AE169081870
:1004F00086420FD2E0780700FFB2022F0ADBE069E4
:1005000086190123320014F13001607801F060FC9B
:100510007F1EF1E7002D0BD001232A0014F13001DA
:10052000607801F0C1FB002801D0012001E0E56204
:100530000020F2BD38B5040000212000FFF7BEFF07
:1005400005006DB2002D5ED12078032852D160796C
:1005500000284FD00020E0624FF40072002114F117
:100560003000FFF781FF552084F82E02AA2084F87E
:100570002F02522084F83000522084F8310061208C
:1005800084F83200412084F83300722084F8140289
:10059000722084F81502412084F81602612084F844
:1005A0001702206984F81802206980B2000A84F8D2
:1005B00019022069000C84F81A022069000E84F8E0
:1005C0001B02E06884F81C02E06880B2000A84F82C
:1005D0001D02E068000C84F81E02E068000E84F83A
:1005E0001F020123626914F13001607801F0F0FB11
:1005F0000020607100220021607801F08BFC00284F
:1006000001D001200500280040B232BD0200891E41
:100610009069801E814201D3002003E09078926AA5
:1006200000FB012070472DE9F04104000D00022D70
:1006300002D3A069854201D3012063E0207801281C
:1006400004D05DD3032840D02BD359E0A84618EB43
:100650005808206A10EB58212000FFF72FFF0028D0
:100660004ED15FEAC850C00D204490F8300006001B
:1006700018F10108206A10EB58212000FFF71EFF37
:1006800000283DD15FEAC850C00D204490F83000EA
:1006900056EA0026E80701D5300901E03005000DD3
:1006A00030E0206A10EB15212000FFF707FF00283B
:1006B00026D16800C005C00D20443030070078788E
:1006C000397851EA002080B21CE0206A10EBD51185
:1006D0002000FFF7F3FE002812D1A800C005C00DCE
:1006E000204430300700F878B978090451EA0060F6
:1006F000797850EA01203978084320F0704001E011
:100700005FF0FF30BDE8F0812DE9F84304000D00F3
:100710001600022D02D3A069854202D30220814631
:100720008FE02078012805D0C0F0878003285ED0B4
:1007300043D382E02F0017EB5707206A10EB5721B5
:100740002000FFF7BBFE81464FFA89F9B9F1000F8F
:1007500075D1F805C00D204430308046E80706D535
:1007600098F8000010F00F0050EA061000E030008A
:1007700088F800007F1C01202071206A10EB5721AF
:100780002000FFF79BFE81464FFA89F9B9F1000F6F
:1007900055D1F805C00D204430308046E80701D51A
:1007A000300907E098F8000010F0F000310A11F06D
:1007B0000F01084388F8000041E0206A10EB152182
:1007C0002000FFF77BFE81464FFA89F9B9F1000F4F
:1007D00035D16800C005C00D20443030804688F80F
:1007E0000060300080B2000A88F8010027E0206A2B
:1007F00010EBD5112000FFF761FE81464FFA89F911
:10080000B9F1000F1BD1A800C005C00D2044303045
:10081000804698F80300000610F07040064388F800
:100820000060300080B2000A88F80100300C88F8BF
:100830000200300E88F8030001E00220814601200A
:100840002071484640B2BDE8F283F8B504000D00BF
:10085000022D02D3A069854202D3022006002AE0BD
:1008600000200600A069854225D229002000FFF75C
:10087000DAFE0700002F1ED0012F02D10220060051
:1008800019E017F1010F02D10120060013E0002248
:1008900029002000FFF738FF060076B2002E0AD1AB
:1008A000206910F1010F04D02069401C2061012053
:1008B00060713D00D6E7300040B2F2BD2DE9F8434B
:1008C00004000D00002D0AD1E0688046B8F1000F49
:1008D00002D0A069804511D3012080460EE0290096
:1008E0002000FFF7A0FE0600022E01D2012051E0F9
:1008F000A069864201D230004CE0A84647467F1CE2
:10090000A069874205D302200700B84501D2002024
:1009100040E039002000FFF786FE0600002E0CD1D3
:100920007FF0704239002000FFF7EEFE81464FFA5B
:1009300089F9B9F1000F13D10AE016F1010F01D0C6
:10094000012E01D1300025E04745D8D1002021E01B
:10095000002D05D03A0029002000FFF7D5FE814682
:100960004FFA89F9B9F1000F0AD1E760206910F157
:10097000010F0ED02069401E20610120607108E047
:100980004FFA89F9B9F1010F02D15FF0FF3700E0AA
:1009900001273800BDE8F283F8B504000D00E580BA
:1009A000A0680600012E03D020688069864201D32A
:1009B00002204BE0002E06D120680078032802D1E7
:1009C0002068406A0600002E0FD1E66028002168EA
:1009D000098980B2884201D3022037E02068406A4A
:1009E000ADB210EB1510206127E02068807880B24E
:1009F000000107002800390080B289B2884213D371
:100A000031002068FFF70FFE060016F1010F01D13B
:100A100001201BE0022E03D320688069864201D3A7
:100A2000022013E0ED1BE5E7E66031002068FFF7E8
:100A3000EDFDADB210EB151020612068ADB215F0E0
:100A40000F0149010844303060610020F2BD2DE9FA
:100A5000F04104000F00E088401C0600B6B2002EF2
:100A600002D02069002801D1042087E00F2006422F
:100A70007AD12069401C2061E068002807D130004D
:100A80002168098980B288426ED3042076E0B6B22C
:100A900020688078401E10EA161F65D1E168206842
:100AA000FFF7C1FD0500022D01D2022066E015F11D
:100AB000010F01D1012061E02068806985424DD39A
:100AC000002F01D1042059E0E1682068FFF7F6FE0D
:100AD0000500002D01D1072050E0012D01D1022099
:100AE0004CE015F1010F01D1012047E00021206801
:100AF000FFF7E4FC002801D001203FE04FF4007232
:100B0000002120683030FFF7AFFC29002068FFF794
:100B10007DFD2168C86200208046404621688978B2
:100B2000C0B2884212D201202168087100212068D9
:100B3000FFF7C4FC002801D001201FE02068C06A34
:100B4000401C2168C86218F10108E6E72068C06A05
:100B50005FFA88F8B0EB08002168C862E5602900F8
:100B60002068FFF753FD2061E6802068B6B216F0DA
:100B70000F0149010844303060610020BDE8F08178
:100B8000F8B5040000212000FFF706FF07007FB240
:100B9000002F02D0380040B225E021692068FFF71D
:100BA0008DFC07007FB2002F1BD1606906003078F2
:100BB0000500EDB2002D02D10420070011E0F07A0B
:100BC000000706D40B22A1693000FFF758FC00286B
:100BD00007D000212000FFF73AFF07007FB2002F67
:100BE000DBD0380040B2F2BDF8B50400002120008F
:100BF000FFF7D2FE05006DB2002D19D121692068E2
:100C0000FFF75CFC05006DB2002D11D16069007822
:100C10000600F6B2E52E02D0F6B2002E00D107E0B3
:100C200001212000FFF713FF05006DB2002DE5D074
:100C30006DB2002D16D121692068FFF73FFC050039
:100C40006DB2002D0ED1606907002022002138000E
:100C5000FFF70AFC0B22A1693800FFF7F7FB012020
:100C600021680871280040B2F2BD2DE9F34F81B030
:100C70000298006883469BF900002F2803D09BF957
:100C800000005C2802D11BF1010BF4E70198806998
:100C900007000B2220213800FFF7E6FB00200400AC
:100CA000E4B2A246D146082080461BF809000500A0
:100CB00019F10109EDB2212D05DBEDB22F2D02D086
:100CC000EDB25C2D07D10BEB090002990860EDB283
:100CD000212D61DA5EE0EDB22E2D01D0C2450DD39B
:100CE000B8F1080F02D1EDB22E2D01D0062072E02E
:100CF000082082460B208046A400D6E7EDB2802D66
:100D000001DB54F00304EDB2812D22DBEDB2FF2DA7
:100D10001FD01BF80900060019F10109F6B2402E98
:100D200002DBF6B27F2E05DBF6B2802E06DBF6B2D2
:100D3000FF2E03D0B8F10100824501D306204AE01E
:100D400007F80A501AF1010A07F80A601AF1010AB5
:100D5000ABE7EDB22900DFF80406FFF7A2FB00289D
:100D600001D0062037E0EDB2412D05DBEDB25B2D61
:100D700002DA54F0020408E0EDB2612D05DBEDB2B9
:100D80007B2D02DA54F00104203D07F80A501AF1D5
:100D9000010A8AE7042500E00025BAF1000F01D11D
:100DA000062018E03878E52801D105203870B8F120
:100DB000080F00D1A400E4B214F00300012801D10F
:100DC00055F01005E4B214F00C00042801D155F0E0
:100DD0000805FD720020BDE8FE8FF2B50400009802
:100DE00090F900002F2804D0009890F900005C28AA
:100DF00002D10098401C00900020A060009890F95B
:100E00000000202807D200212000FFF7C5FD0500C3
:100E10000020606131E069462000FFF726FF0500F1
:100E20006DB2002D29D12000FFF7AAFE0500A069B0
:100E3000C07A07006DB2002D07D06DB2042D1CD111
:100E4000780701D40520050017E0780715D46069FC
:100E50000600F07AC00602D4052005000DE0707D82
:100E6000317D51EA002080B2F17EB27E52EA01214A
:100E700089B251EA0040A060CDE7280040B2F2BD3F
:100E800038B504000D0001232A0014F13001607808
:100E900000F00AFF002801D003202DE094F82F0273
:100EA00094F82E1251EA002080B24AF65521884269
:100EB00001D0022020E094F8680094F8671009023D
:100EC00051EA004094F866100843DFF89414884211
:100ED00001D1002010E094F8840094F883100902F6
:100EE00051EA004094F882100843DFF874148842F5
:100EF00001D1002000E0012032BD2DE9F34F87B081
:100F000093460798D0F8008098F900003038029096
:100F100002980A2809D298F901003A2805D118F157
:100F200002080798C0F8008001E0002002900298B3
:100F3000002801D00B20DDE1DFF82804029950F8E9
:100F40002100070008980760002F01D10C20D1E193
:100F50003878002815D0787801F034F88DF8000042
:100F60009DF80000C0070CD45FFA8BFBBBF1000FAB
:100F700005D09DF80000400701D50A20BAE1002005
:100F8000B8E10020387002987870787800F00EFD93
:100F90008DF800009DF80000C00701D50320A9E1ED
:100FA0005FFA8BFBBBF1000F05D09DF800004007F6
:100FB00001D50A209EE10020019001993800FFF739
:100FC0005FFF0400E4B2012C29D1002081465FFAC2
:100FD00089F9B9F1000F01D0B9F101095FFA89F976
:100FE0005FEA091038444FF4F771084403900398FE
:100FF0000079002813D00398C07A0399897A0904EC
:1010000051EA00600399497A50EA01200399097A6C
:101010000843019001993800FFF732FF0400E4B261
:10102000032C01D1012065E1E4B2002C01D00D2098
:1010300060E197F83C0097F83B1051EA002080B23D
:10104000B0F5007F01D00D2054E197F8470097F8E4
:10105000461051EA002080B28246BAF1000F0ED14C
:1010600097F8570097F85610090451EA006097F86E
:10107000551050EA012097F8541008438246C7F8EB
:101080001CA097F840000500FD70EDB2012D04D0C2
:10109000EDB2022D01D00D202CE1EDB205FB0AFAD4
:1010A00097F83D000500BD70EDB2002D04D0691E1B
:1010B0002800C0B2084201D00D201BE197F8420081
:1010C00097F8411051EA00203881387A0F21084200
:1010D00001D00D200EE197F8440097F8431051EA33
:1010E000002080B20590059800280ED197F8530093
:1010F00097F85210090451EA006097F8511050EA2D
:10110000012097F850100843059097F83F0097F892
:101110003E1051EA0020ADF80200BDF802000028A0
:1011200001D10D20E6E0BDF802001AFA80F03989FD
:1011300010EB1110069005980699884201D20D20F7
:10114000D8E005980699401AB978B0FBF1F0049000
:101150000498002801D10D20CCE00120040004985F
:1011600040F6F671884201D30220040004984FF63D
:10117000F671884201D3032004000498801CB861F2
:10118000019806990818B8620198BDF8021010FA83
:1011900081F03862E4B2032C17D13889002801D0DD
:1011A0000D20A7E097F85F0097F85E10090451EA58
:1011B000006097F85D1050EA012097F85C10084332
:1011C0007862B8698000060016E03889002801D1ED
:1011D0000D208FE0386A1AEB00007862E4B2022C2E
:1011E00002D1B869460007E0B86903214843397E57
:1011F00011F0010111EB5006F86906F2FF11B0EB96
:10120000512F01D20D2075E05FF0FF3038610020D2
:10121000F860E4B2032C5FD100207871019897F850
:10122000611097F8602052EA012110FA81F078618C
:1012300001237A6917F13001787800F035FD002834
:101240004AD197F82F0297F82E1251EA002080B267
:101250004AF6552188423FD197F8330097F832106B
:10126000090451EA006097F8311050EA012097F81C
:10127000301008433C4988422ED197F8170297F85E
:101280001612090451EA006097F8151250EA01207D
:1012900097F814120843354988421DD197F81F0268
:1012A00097F81E12090451EA006097F81D1250EADF
:1012B000012097F81C120843F86097F81B0297F872
:1012C0001A12090451EA006097F8191250EA012035
:1012D00097F81812084338613C7025480088401C74
:1012E0002349088022480088F8800020F862002006
:1012F0003871002009B0BDE8F08F38B504000D004A
:10130000002C07D02078002804D0E088290089B27A
:10131000884201D0092007E0607800F053FEC00742
:1013200001D5032000E0002032BD0200D2B2002A25
:1013300001D00B2011E00B48D2B250F8220003007C
:10134000002B01D000201870002901D00020087067
:101350000448D2B240F8221000207047C067000055
:10136000464154000C0CFF1F5252614172724161A0
:101370001010FF1F2DE9F2438AB00400170000206F
:10138000206017F01F0717F0FE0269460AA8FFF752
:10139000B4FD050007A806906DB2002D04D10A998E
:1013A0006846FFF71AFD0500059806006DB2002D8E
:1013B00003D1002E01D1062005001C20074267D072
:1013C0006DB2002D0BD06DB2042D03D16846FFF72E
:1013D0000BFC050057F00807059806000AE0F07AB4
:1013E0001121084202D00720050003E0780701D54B
:1013F000082005006DB2002D5AD1380758D500F0ED
:10140000F7FD804686F80E80404680B2000AF073F1
:101410005FEA184030745FEA186070740020F07260
:1014200000203077002070770020B0770020F07720
:10143000707D317D51EA002080B2F17EB27E52EAA9
:10144000012189B251EA004081460020B076002097
:10145000F076002030750020707501200099087129
:10146000B9F1000F24D00098C06A80464946009820
:10147000FFF7EBF905006DB2002D19D1B9F10100AC
:101480000099C86041460098FFF718F805000FE082
:101490006DB2002D0CD1F07AC00602D504200500F3
:1014A00006E0B80704D5F07AC00701D5072005008B
:1014B0006DB2002D07D1380701D557F020070098ED
:1014C000C06AE06126626DB2002D21D1A771707DE6
:1014D000317D51EA002080B2F17EB27E52EA0121D4
:1014E00089B251EA00402061F07FB17F090451EADE
:1014F0000060717F50EA0120317F0843E0600020E6
:10150000A0600020A061009820600098C088A080A2
:10151000280040B20BB0BDE8F0832DE9F24F84B053
:10152000040015001E00DDF810A000203060A18826
:101530002068FFF7E2FE8DF808009DF908000028FA
:1015400002D09DF90800DBE0A079000601D5022059
:10155000D6E0A079C00701D40720D1E0E068A168F7
:10156000401A01900198A84201D201980500002D6F
:1015700000F0C580A068C00540F0A580A068400AC2
:1015800021688978491E084081465FFA89F9B9F1D6
:10159000000F1FD1A068002802D12069009004E04C
:1015A00061692068FFF73FF800900098022805D293
:1015B000A07950F08000A0710220A1E0009810F105
:1015C000010F05D1A07950F08000A071012097E0B3
:1015D0000098606161692068FFF718F88346BBF1E5
:1015E000000F05D1A07950F08000A071022087E0A3
:1015F0005BFA89FB680A8046B8F1000F37D0206893
:10160000807858FA89F1884206D2206880785FFA9B
:1016100089F9B0EB090080464346DBB25A46514691
:101620002068407800F040FB002805D0A07950F0F9
:101630008000A071012063E0A079400611D5A06967
:10164000B0EB0B0040450CD24FF4007214F12401B2
:10165000A069B0EB0B004FF4007358435044FEF701
:10166000F5FE4FF4007000FB08F007003EE0A069B3
:10167000584526D0A079400613D50123A26914F15C
:1016800024012068407800F0A3FB002805D0A07951
:1016900050F08000A071012032E0A07910F0BF006E
:1016A000A07101235A4614F124012068407800F00B
:1016B000FBFA002805D0A07950F08000A07101202D
:1016C0001EE0C4F818B0A068C005C00DD0F50070C9
:1016D0000700BD4200D22F003A00A068C005C00D2F
:1016E000204410F124015046FEF7B0FEBA44A06831
:1016F0003818A060306838183060ED1B37E70020DC
:1017000005B0BDE8F08FF8B50400A1882068FFF7A8
:10171000F4FD05006DB2002D54D1A079800651D59D
:10172000A07940060FD50123A26914F12401206895
:10173000407800F04DFB002801D0012044E0A07962
:1017400010F0BF00A071E1692068FEF7B7FE050048
:101750006DB2002D36D1206A0700F87A50F02000D3
:10176000F872E0683877E06880B2000A7877E0685D
:10177000000CB877E068000EF8772069B876206929
:1017800080B2000AF8762069000C38752069000CD8
:1017900080B2000A787500F02BFC0600BE753000A0
:1017A00080B2000AF875300C3876300E7876A07961
:1017B00010F0DF00A0710120216808712068FEF799
:1017C000B9FE0500280040B2F2BD38B50400200083
:1017D000FFF799FF05006DB2002D01D100202060B8
:1017E000280040B232BD2DE9F04704000D00A18869
:1017F0002068FFF782FD060076B2002E02D030008E
:1018000040B2D0E0A079000601D50220CBE0E0682C
:10181000A84204D2A079800701D4E0680500A0683E
:10182000824600208146C4F80890002D00F0808098
:10183000206880784FF4007148438046BAF1000F69
:1018400013D0BAF10100B0FBF8F0691EB1FBF8F15A
:1018500081420AD3BAF10100B8F101018843A060C6
:10186000A0682D1A606907001BE020690700002F9F
:1018700016D100212068FFF721F80700012F05D1BC
:10188000A07950F08000A07102208CE017F1010FC8
:1018900005D1A07950F08000A071012083E027617C
:1018A0006761002F44D0A8452DD2A079800708D5C4
:1018B00039002068FFF702F80700002F06D14546DF
:1018C00021E039002068FEF7AEFE070017F1010F96
:1018D00005D1A07950F08000A071012063E0022FB3
:1018E00003D320688069874205D3A07950F0800037
:1018F000A071022057E06761A06818EB0000A060AB
:10190000B5EB0805CFE7A0682818A060E8050FD060
:1019100039002068FEF77AFE8146B9F1000F05D143
:10192000A07950F08000A07102203CE019EB55290D
:10193000A068C0052BD0A069814528D0A0794006B9
:1019400013D50123A26914F124012068407800F026
:101950003FFA002805D0A07950F08000A071012046
:1019600021E0A07910F0BF00A07101234A4614F1D4
:1019700024012068407800F097F9002805D0A0796C
:1019800050F08000A07101200DE0C4F81890E068CC
:10199000A168884205D2A068E060A07950F02000DC
:1019A000A071300040B2BDE8F0870000F0B589B00A
:1019B0000400E4B2002C01D0012035E1DFF8180664
:1019C0000078800703D5DFF8100600782CE1DFF8F7
:1019D00008060078C00701D4002025E10020DFF8C8
:1019E000FC1548600020DFF8F41588600020DFF85F
:1019F000EC15C8600020DFF8E41508740020DFF85B
:101A0000DC1548740021002000F090FC002801D073
:101A1000002009E1002000906946022000F086FCC9
:101A2000002801D00020FFE00098022808D000988C
:101A3000032805D00098052802D0009806281DD15B
:101A40000098032802D00098062803D10120DFF86F
:101A50008C15087402208DF8040000208DF8050014
:101A60000020029000208DF806000020039001A9BC
:101A7000012000F05BFC002802D103E00020D3E04D
:101A80000020D1E003208DF8040000208DF805002F
:101A90000020029000208DF806000020039001A98C
:101AA000012000F043FC002801D00020BCE0049895
:101AB000000C0004DFF82415C86009208DF804002C
:101AC00000208DF80500DFF81405C06802900020A2
:101AD0008DF806000020039001A9012000F026FCEB
:101AE000002801D000209FE0079810F4400F1ED17D
:101AF0000698C0F3032006009DF8180010F00300BC
:101B000007000598800D50EA87270598C0F3C2109A
:101B10000500781C0121AA1C914048430121320094
:101B2000093A91404843DFF8B41488600CE0012082
:101B3000DFF8A81448740598C0F315200700781C36
:101B40008002DFF89814886007208DF804000020D8
:101B50008DF80500DFF88404C068029000208DF83D
:101B600006000020039001A9012000F0DFFB0028FF
:101B700001D0002058E010208DF8040000208DF8DE
:101B800005004FF40070029000208DF80600002040
:101B9000039001A9012000F0C9FB002801D000201A
:101BA00042E037208DF8040000208DF80500DFF8B2
:101BB0002C04C068029000208DF8060000200390DD
:101BC00001A9012000F0B2FB002801D000202BE089
:101BD00006208DF8040000208DF8050002200290F8
:101BE00000208DF806000020039001A9012000F0DC
:101BF0009DFB002801D0002016E0012000906946DE
:101C0000042000F093FB002801D000200CE0DFF856
:101C1000C803007810F0FE00DFF8BC130870DFF88E
:101C2000B803007810F0030009B0F0BDF0B4020072
:101C30001500DFF8AC0300688006FAD52020DFF835
:101C4000A07338600B00002B2BD0B3F5007F02D9B6
:101C50004FF4007600E01E00F01C80080400002C09
:101C60001DD0DFF87C03006810F4E00F0BD0DFF824
:101C70007003006840F4E00050F02000DFF860736B
:101C8000386000200EE0DFF85C0300680005FAD53C
:101C9000DFF85403006828602D1D641EDFE79B1BDE
:101CA000D1E70120F0BC7047F0B587B004000D000B
:101CB00017001E00E4B2002C02D1F6B2002E01D1B2
:101CC000042054E0C4480078C00701D503204EE04A
:101CD000002D01D104204AE0C048007C002802D138
:101CE0004FF400704743F6B2012E1BD111208DF83E
:101CF000000000208DF80100019701208DF80200FE
:101D0000F6B202966946012000F010FB002827D1A8
:101D10004FF400712800FFF789FF002820D0002031
:101D200006001DE012208DF8000000208DF8010053
:101D3000019701208DF80200F6B202966946012053
:101D400000F0F4FA00280BD1F6B24FF4007000FB5B
:101D500006F12800FFF76AFF002801D000200600E6
:101D6000F6B2002E01D0012000E0002040B207B002
:101D7000F0BD70B4020013000C00002C25D0B4F5A7
:101D8000007F02D94FF4007500E02500641BE81CB9
:101D90008508002DF1D09248006810F4E00F0AD0B9
:101DA0008F48006840F4E00050F010008C4E306026
:101DB0005FF0FF300AE08B4800684005FBD51868EB
:101DC000894E30601B1D6D1EE3E7012070BC70471B
:101DD000F0B587B004000D0017001E00E4B2002C1F
:101DE00002D1F6B2002E01D1042091E07A480078A9
:101DF000C00701D503208BE077480078400701D564
:101E0000022085E0002D01D1042081E07348007C90
:101E1000002802D14FF400704743F6B2012E1BD1C7
:101E200018208DF8000000208DF801000197002097
:101E30008DF80200F6B202966946012000F076FAAB
:101E400000283CD14FF400712800FFF792FF0028D2
:101E500035D00020060032E019208DF80000002067
:101E60008DF80100019700208DF80200F6B202966D
:101E70006946012000F05AFA002820D1F6B24FF44A
:101E8000007000FB06F12800FFF773FF002801D067
:101E900000200600524800688007FBD550480068C3
:101EA00010F4E00F05D04E48006850F4E0004C49B3
:101EB00008604B48006850F03200494908600D2026
:101EC0008DF8000000208DF801004448C0680190A2
:101ED00000208DF80200002002906946012000F0E9
:101EE00025FA002801D0012012E003983F4908425A
:101EF00001D001200CE0039810F4F850B0F5106FF9
:101F0000DDD1F6B2002E01D0012000E0002040B269
:101F100007B0F0BDF0B587B004000D001600E4B2C4
:101F2000002C01D004204BE0012007002A48007853
:101F3000C00701D5032043E0EDB2002D05D0022DEE
:101F40000CD005D3032D0FD036E00020070035E07C
:101F5000224880683060002007002FE04FF40070B6
:101F600030800020070029E009208DF800000020C3
:101F70008DF801001948C068019000208DF802001A
:101F8000002002906946012000F0D0F9002801D01D
:101F9000012015E0069810F4400F0AD10598C0F30F
:101FA0008640401C0699090A11F00301491E884029
:101FB00030600020070001E004200700380040B234
:101FC00007B0F0BD0100C9B2002901D0012001E035
:101FD0000148007870470000080CFF1FF40FFF1F36
:101FE00030100B4024100B4020100B400880D9FF0C
:101FF0000020704780B50020DFF8C4170860DFF8C4
:10200000C407006850F40030DFF8B8170860DFF844
:10201000B807DFF8B8170860DFF8B0070068C0013C
:10202000FAD40020DFF8A81708605FF48130DFF8E9
:10203000A41708602820DFF8A01708605FF00110DF
:10204000DFF898170860DFF8980700F04DF8DFF820
:102050009407006810F0030FF9D140F2434180204B
:1020600000F0E4FB40F24341812000F0DFFB4FF43D
:102070008861822000F0DAFB40F24341832000F0C7
:10208000D5FB40F24341842000F0D0FB40F24341B5
:10209000852000F0CBFB4FF6FF70DFF84C1708608F
:1020A000DFF84807DFF848170860DFF82007006806
:1020B00050F00060DFF814170860DFF810070068C0
:1020C0000001FAD4DFF81C070068C00303D5012023
:1020D000DFF8EC160860DFF81007006850F08000A9
:1020E000DFF80417086001BDF0B580240F25DFF884
:1020F00004773F684FF47A7C0CFB07F75FF0FF3CF6
:1021000063465FF0020C6146B1F5807F16D85FF040
:10211000010C6246112A0FD202FB01FC00FB0CFCF1
:10212000BCEB070C6646002E04D49E4202D233005C
:102130000C001500521CEDE74900E5E7DFF88CC6FE
:10214000DCF800C03CF0080CDFF880E6CEF800C0F8
:10215000DFF878C6DCF800C06FF3131C5FEAC41E1A
:102160001EF47F4E5EEA0C0CB5F1010E5FEA0E1E06
:102170001EF0F00E5EEA0C0C5CF4602CDFF84CE60E
:10218000CEF800C0DFF85CC6DCF800C05FEA0C7C6B
:10219000F8D5DFF838C6DCF800C05CF0080CDFF8D2
:1021A0002CE6CEF800C0DFF840C6DCF800C05CF4D6
:1021B000801CDFF834E6CEF800C0F0BD70B5040036
:1021C000DFF83406217850F82100050015F1010FE1
:1021D00004D1EB21DFF8240600F0A4FBDFF80806A9
:1021E000006850F08000DFF800160860DFF8F405A2
:1021F0000068C007FAD46068DFF80416086035F498
:1022000040056078800510F440000543607802289E
:1022100001D155F40015A068002820D015F44030F5
:10222000B0F5403F01D055F40015A078002801D04A
:1022300055F01005A068022801D355F02005A068CC
:1022400010F1010F07D0A068000450F400700600E0
:1022500055F0020505E0DFF8AC05060001E00020BE
:102260000600DFF8700506600020DFF89C150860A6
:10227000DFF898050560DFF870050068DFF8901555
:102280000842F8D0DFF860050068DFF884150840E0
:1022900001280BD0DFF85005006840F4702050F0A2
:1022A0000100DFF84415086003203EE0DFF8380540
:1022B0000068000609D5DFF83005006850F001100D
:1022C000DFF82415086002202FE0DFF81C05006805
:1022D000C00309D5DFF81005006850F00110DFF8E1
:1022E00008150860032020E015F4403F14D0DFF803
:1022F00024050068E06015F44030B0F5803F0BD154
:10230000DFF8140500682061DFF8100500686061DF
:10231000DFF80C050068A061DFF8CC04006850F01D
:102320000100DFF8C4140860002070BD2DE9F04FF3
:1023300089B004000D00AA460020814664B2002C3A
:102340000AD0022C00F00482C0F08F81042C00F02F
:10235000BE81C0F099812CE2FFF74CFE0020060000
:1023600000208DF800000020070000208DF80200FA
:102370000020804600208DF8010000208DF8040028
:1023800000208DF805000020029000208DF8060046
:102390000020039001A8FFF711FF002802D00120C0
:1023A000814608E240F24C4000F024FB08208DF802
:1023B000040000208DF805004FF4D5700290002035
:1023C0008DF806000020039001A8FFF7F7FE834672
:1023D000BBF1000F08D104980299884202D0012075
:1023E0008146E8E10120804601208DF801009DF83A
:1023F0000100002800F0FB8037208DF80400002049
:102400008DF805000020029000208DF806000020C5
:10241000039001A8FFF7D2FE8346BBF1010F02DB58
:1024200001208146C7E1BBF1000F6DD500208DF87A
:102430000000002006000020804601208DF80400E6
:1024400000208DF80500DFF8DC03029000208DF8F5
:1024500006000020039001A8FFF7B0FE002802D07C
:1024600001208146A7E1049810F0C040B0F1005F60
:1024700001D1012080460120070027208DF80400AB
:1024800000208DF805004FF44060029000208DF888
:1024900006000020039001A8FFF790FE002802D05C
:1024A0000120814687E10498000ACE2801D101204D
:1024B00000E00020C0B2002800F0998027208DF8AD
:1024C000040000208DF805004FF4506002900020B9
:1024D0008DF806000020039001A8FFF76FFE00288A
:1024E00002D00120814666E10498000AAA2801D1A1
:1024F000012000E00020C0B2002878D000200700B2
:1025000001208DF8020072E029208DF804000020DF
:102510008DF805000020029000208DF806000020B4
:10252000039001A8FFF74AFE002802D0012081464F
:1025300041E1049810F4401F59D0002083460A203E
:1025400000F058FA1BF1010B37208DF80400002031
:102550008DF805000020029000208DF80600002074
:10256000039001A8FFF72AFE002802D0012081462F
:1025700023E029208DF8040000208DF805005FFA83
:1025800088F8B8F1000F02D0A648029002E05FF48C
:102590004010029000208DF806000020039001A852
:1025A000FFF70CFE002802D00120814605E00498C8
:1025B000002802D4BBF1640FC1DB4FFA89F9B9F1ED
:1025C000000F40F0F880BBF1640F02DB0020804672
:1025D0000DE0012006005FFA88F8B8F1000F06D080
:1025E000002080460498400001D501208046FFB2BB
:1025F000002F02D00720724908609DF802000028D1
:1026000002D008206E4908609DF80000002802D022
:1026100004206B490860F6B2002E0AD002206849F7
:1026200008605FFA88F8B8F1000F02D0032064490F
:1026300008609DF8000000280DD0F6B2002E0AD0E8
:1026400005205F4908605FFA88F8B8F1000F02D0F2
:1026500006205B4908607448FFF746FD594800684A
:1026600050F4003057490860A5E05046FFF7A6FD3A
:102670008346BBF1010F01DB02208146BBF1000F55
:1026800001D50320814696E0BAF1000F02D1052062
:1026900081461BE050480068C0F341008346BBF10F
:1026A000000F03D10020CAF800000FE0BBF1010FBA
:1026B00003D10120CAF8000008E0BBF1100F03D1DC
:1026C0000220CAF8000001E00620814673E0BAF15A
:1026D000000F02D10520814639E04248006840F2EF
:1026E0000731084231D1DAF8000000280AD13A480F
:1026F000006830F0060038490860374800683649FD
:10270000086024E0DAF8000001280CD132480068A3
:1027100030F00600304908602F48006850F0020091
:102720002D49086013E0DAF8000002280AD12A488F
:10273000006830F0060028490860274800682649EC
:10274000086004E00620814601E00720814632E06F
:10275000BAF1000F02D10520814629E01B4800682C
:1027600050F0006019490860184800680001FBD467
:102770001D480068000608D51B48006850F080001E
:102780001949086000200E49086016480068C00317
:1027900007D50B480068002806D1012008490860C9
:1027A00002E000200649086005480068CAF80000F9
:1027B00001E004208146484640B209B0BDE8F08FF0
:1027C000F40FFF1F30800440008000012C100B40EC
:1027D000C0100B4004100B4028100B4044100B405D
:1027E000E093040024100B4030100B40B3007F0036
:1027F00034100B400810FF1FD06200007466000008
:1028000008100B400002FFFF00100B400C100B40A3
:1028100001000E0010100B4014100B4018100B405C
:102820001C100B400000304080F0FA0238B5040064
:102830000D002000C0B24009002806D0022812D0A6
:102840000AD304281DD015D322E03348006850F481
:102850000070314908601FE02F48006850F4806024
:102860002D49086018E02C48006850F400602A499F
:10287000086011E02848006850F48050264908603C
:102880000AE02548006850F400502349086003E03E
:102890003921224800F046F82148E4B2611150F88D
:1028A00021001F49E4B2621151F82210D1F8A010A2
:1028B000012214F01F039A401143C0F8A0101848D9
:1028C000E4B2611150F82100E4B214F01F01144A7F
:1028D000E4B2631152F82320E4B214F01F0352F85B
:1028E000232032F4E06240F821200D48E4B2611167
:1028F00050F82100E4B214F01F01094AE4B2631158
:1029000052F82320E4B214F01F0352F823202A4384
:1029100040F8212031BD00003880044038660000B6
:10292000D00BFF1FFEE710B51748047800F0B4F88D
:1029300000231648E4B20F2101FB04F100EB010271
:102940000021002000F042F90021002000F0CAFB25
:102950000021012000F0C6FB0021022000F0C2FB94
:102960000021032000F0BEFB002000F0C7FB012087
:1029700000F0C4FB022000F0C1FB032000F0BEFB0E
:10298000642000F037F8EFE704ED00E03404FF1FA7
:1029900030B4002100220023124C246854F08074CB
:1029A000104D2C60104C246854F001040E4D2C6026
:1029B0000E4C246821000E4C24684FF47A75B4FB49
:1029C000F5F404FB00F423005C1822008A4203D2D1
:1029D000064C2468A242FBD3044C24689442FBD3E7
:1029E00030BC7047FCED00E0001000E0041000E097
:1029F0000810FF1F10B504002000441E002804D05A
:102A00004FF47A70FFF7C4FFF6E710BD10B504006D
:102A1000DFF83C06C068006830F48060DFF83016EC
:102A2000C96808602200D2B20221022000F07CFDB9
:102A300010BD10B50400DFF81806C068006850F437
:102A40008060DFF80C16C96808602200D2B202214B
:102A5000022000F069FD10BD38B5002400250020DB
:102A60000400E4B2082C16DA54F0B000C0B2FFF74C
:102A7000CDFF1020FFF7CAFF0020FFF7C7FF00209F
:102A80000500EDB2802D04DA0020FFF7D2FF6D1CA7
:102A9000F7E7641CE5E731BD80B5DFF8B835002203
:102AA0000221022000F058FB002201216A2000F0E0
:102AB0009FFDAE20FFF7AAFF0A20FFF769FFE22083
:102AC000FFF7A4FF0A20FFF763FFA220FFF79EFF96
:102AD0000A20FFF75DFFA020FFF798FF0A20FFF70D
:102AE00057FFC820FFF792FF0A20FFF751FF2C2065
:102AF000FFF78CFF4CF25030FFF74AFF2E20FFF714
:102B000085FF4CF25030FFF743FF2F20FFF77EFF89
:102B10004CF25030FFF73CFF2520FFF777FF0A20EB
:102B2000FFF736FF8120FFF771FF0A20FFF730FF24
:102B30002020FFF76BFF0A20FFF72AFFB020FFF7E6
:102B400065FF0A20FFF724FF1020FFF75FFF0A2030
:102B5000FFF71EFF0020FFF759FF0A20FFF718FFBD
:102B6000AF20FFF753FF0A20FFF712FFA520FFF762
:102B70004DFF0A20FFF70CFFAE20FFF747FF0A20AA
:102B8000FFF706FFAF20FFF741FF0A20FFF700FF26
:102B9000A420FFF73BFF0A20FFF7FAFEFFF75CFFD8
:102BA00001BD38B504000D0055F0B000C0B2FFF70C
:102BB0002DFF2000C0B2000950F01000C0B2FFF796
:102BC00025FF14F00F00FFF721FF31BD2DE9F0477D
:102BD00004000D0016001F005FF000085FF0000900
:102BE0005FF0000A7FB2002F39D10020804600201C
:102BF0008146002082465FFA8AFA16F80A00002809
:102C000069D05FFA8AFA16F80A0020388046E4B2E2
:102C10007A2C02DB002004006D1C2900C9B22000C0
:102C2000C0B2FFF7BEFF002081465FFA89F9B9F113
:102C3000060F10DADFF820045FFA88F8062101FB9E
:102C400008F108445FFA89F910F80900FFF7F1FE6E
:102C500019F10109E9E7A41D1AF1010ACBE70020E7
:102C6000804600208146002082465FFA8AFA16F8E4
:102C70000A0000282FD05FFA8AFA16F80A002038D6
:102C80008046E4B27A2C02DB002004006D1C29008F
:102C9000C9B22000C0B2FFF784FF002081465FFA6E
:102CA00089F9B9F1060F12DADFF8AC035FFA88F898
:102CB000062101FB08F108445FFA89F910F80900C0
:102CC000C043C0B2FFF7B5FE19F10109E7E7A41D43
:102CD0001AF1010AC9E7BDE8F0872DE9F04F85B088
:102CE00004000D0092461E009DF938B000275FF0E9
:102CF00000085FF000096846142100F0F7FC42F27A
:102D0000107096FBF0F0DFF85413086042F2107078
:102D100096FBF0F100FB11604FF47A7190FBF1F03B
:102D2000DFF83C1308604FF47A7096FBF0F100FB7B
:102D30001160642190FBF1F0DFF828130860642033
:102D400096FBF0F100FB11600A2190FBF1F0DFF837
:102D5000181308600A2096FBF0F100FB1160DFF801
:102D60000C130860DFF8F4020068002819D0DFF8BF
:102D7000EC02006810300090DFF8E40200681030C8
:102D80000190DFF8E002006810300290DFF8D8020E
:102D9000006810300390DFF8D4020068103004900F
:102DA00067E0DFF8BC020068002816D0DFF8B00248
:102DB000006810300090DFF8AC020068103001901D
:102DC000DFF8A402006810300290DFF8A00200686B
:102DD00010300390002004904BE0DFF88802006878
:102DE000002813D0DFF87C02006810300090DFF874
:102DF0007802006810300190DFF87002006810302F
:102E00000290002003900020049032E0DFF8580286
:102E10000068002810D0DFF85002006810300090E1
:102E2000DFF8480200681030019000200290002076
:102E30000390002004901CE0DFF8300200680028B6
:102E40000DD0DFF8280200681030009000200190BB
:102E500000200290002003900020049009E0102040
:102E6000009000200190002002900020039000209C
:102E700004904FFA8BFBBBF1000F71D100200700CB
:102E800000208046002081465FFA89F91AF809007F
:102E900000282CD05FFA89F91AF8090020380700B9
:102EA000E4B27A2C02DB002004006D1C2900C9B2B8
:102EB0002000C0B2FFF775FE002080465FFA88F858
:102EC000B8F1060F0FDADFF89001FFB2062101FB1F
:102ED00007F108445FFA88F810F80800FFF7A9FD29
:102EE00018F10108EAE7A41D19F10109CCE7002057
:102EF000070000208046002081465FFA89F9B9F179
:102F0000050F80F2A18068465FFA89F950F8290020
:102F10000700E4B27A2C02DB002004006D1C2900BB
:102F2000C9B22000C0B2FFF73CFE002080465FFA25
:102F300088F8B8F1060F0FDADFF81C01FFB206219E
:102F400001FB07F108445FFA88F810F80800FFF762
:102F500070FD18F10108EAE7A41D19F10109CCE799
:102F60000020070000208046002081465FFA89F992
:102F70001AF8090000282ED05FFA89F91AF809001A
:102F800020380700E4B27A2C02DB002004006D1C1C
:102F90002900C9B22000C0B2FFF703FE002080461E
:102FA0005FFA88F8B8F1060F11DADFF8AC00FFB26B
:102FB000062101FB07F108445FFA88F810F80800C1
:102FC000C043C0B2FFF735FD18F10108E8E7A41DC2
:102FD00019F10109CAE700200700002080460020FF
:102FE00081465FFA89F9B9F1050F2DDA68465FFA73
:102FF00089F950F829000700E4B27A2C02DB00209E
:1030000004006D1C2900C9B22000C0B2FFF7C9FD41
:10301000002080465FFA88F8B8F1060F10DA0E48F3
:10302000FFB2062101FB07F108445FFA88F810F8A7
:103030000800C043C0B2FFF7FCFC18F10108E9E743
:10304000A41D19F10109CCE705B0BDE8F08F00001F
:10305000000BFF1F80969800F8590000100CFF1F0E
:10306000140CFF1F180CFF1F1C0CFF1F200CFF1F50
:10307000F8B505000C000027002664B2002C16D11C
:1030800000200700FFB2082F2ADA3900C9B2002059
:10309000FFF787FD00200600F6B2802E05DA2878BB
:1030A000FFF7C7FC6D1C761CF6E77F1CEAE70020E3
:1030B0000700FFB2082F13DA3900C9B20020FFF76A
:1030C00070FD00200600F6B2802E07DA2878C04393
:1030D000C0B2FFF7AEFC6D1C761CF4E77F1CE8E77E
:1030E000F1BD000038B504000D002A00D2B2012164
:1030F000064864B2005D00F07BFA31BD10B50400F3
:10310000024864B2005D00F0CAFA10BD1404FF1F4B
:1031100080B501220121272000F06AFA0022012156
:10312000262000F065FA01220121252000F060FA36
:1031300000220121242000F05BFA01BD80B5272088
:1031400000F0ADFA262000F0AAFA252000F0A7FA38
:10315000242000F0A4FA01BD2DE9FD4F96B00C002B
:103160000025002600208DF80000002700208DF8A3
:10317000020000208DF8010004A8DFF88C130A6813
:103180000260DFF8880300684FF47A7148431899A9
:10319000B0FBF1F805A8DFF87813402200F0AAFA96
:1031A0005FF00009002003900020029000200190B1
:1031B0005FF0FF3A5FF0000B9DF95800002804D043
:1031C000022800F0968053D3C2E0DFF8480300687D
:1031D00050F48050DFF83C1308604FF400710F206A
:1031E000FFF724FB4FF400711020FFF71FFB4FF493
:1031F00000711120FFF71AFB64B2012C05D14FF4C6
:1032000000710E20FFF712FB31E064B2022C05D1F1
:103210004FF400714320FFF709FB28E064B2042C4F
:1032200005D14FF400714220FFF700FB1FE064B2AC
:10323000082C05D14FF400714120FFF7F7FA16E092
:1032400064B2102C05D14FF400714020FFF7EEFA64
:103250000DE064B2202C05D14FF440713720FFF708
:10326000E5FA04E05721DFF8B002FFF75BFB74E0FA
:10327000DFF8A002006850F40050DFF898120860F0
:103280004FF400712B20FFF7D1FA4FF4007130207A
:10329000FFF7CCFA4FF400713120FFF7C7FA64B2A0
:1032A000012C05D14FF400712A20FFF7BFFA1FE06F
:1032B00064B2022C05D14FF400712920FFF7B6FA51
:1032C00016E064B2042C05D14FF400718520FFF79D
:1032D000ADFA0DE064B2082C05D14FF400718620E0
:1032E000FFF7A4FA04E07121DFF82C02FFF71AFBC4
:1032F00033E0DFF82802006850F48050DFF81C1239
:1033000008604FF400716C20FFF790FA4FF40071E1
:103310006D20FFF78BFA4FF400716E20FFF786FAED
:1033200064B2012C05D14FF400716B20FFF77EFAD7
:103330000DE064B2022C05D14FF400716F20FFF74D
:1033400075FA04E08321DFF8D001FFF7EBFA04E01F
:103350008721DFF8C401FFF7E5FA40F60140DFF806
:10336000C0119DF9582051F822100860DFF8B4010F
:10337000DFF8AC119DF9582051F82210C8629DF970
:103380005C00002840F0A28064B2200410F47C109D
:1033900050F00040DFF888119DF9582051F82210B4
:1033A000086000200500EDB2102D20DA0020060094
:1033B000F6B2042E19DA05A8EDB250F8250004A9DA
:1033C000F6B2895D48438146B9EB080000F0BDF9CB
:1033D0008346D34507D2DA46EDB20295F6B201969E
:1033E000BAF1000F03D0761CE2E76D1CDBE7DFF8D3
:1033F0001C0100684FF47A71484305A9029A51F8FC
:10340000221004AA019BD25C5143B0FBF1F003905F
:10341000DFF8F80000684FF47A7148430399B0FB75
:10342000F1F0400880465FF0FF3082460F208DF8B3
:10343000010003208DF8020000200700FFB20F2FCB
:1034400026DA0120791C88408146B8FBF9F0401E3D
:1034500040088DF800009DF80000042816DA9DF859
:1034600000004000401C00FB09F9B9EB080000F027
:103470006CF98346D34509D2DA468DF801709DF880
:1034800000008DF80200BAF1000F01D07F1CD5E7D3
:103490000198000410F44030029911F00F01084324
:1034A0009DF80210890511F4400108439DF80110B0
:1034B000090311F47041084350F06050DFF86010C8
:1034C0009DF9582051F82210C86008E05FF078504C
:1034D000DFF84C109DF9582051F82210C860DFF831
:1034E00040009DF9581050F8210000684008400045
:1034F000DFF82C109DF9582051F82210086003982D
:1035000019B0BDE8F08F0000686800000C10FF1FC4
:10351000506400003C800440B066000030800440ED
:10352000E40BFF1F00000A1A10B42F4B40B253F8EF
:1035300020301B6849B20C0414F47C1423432A4C39
:1035400040B254F820402360274B40B253F820305B
:10355000DB6A264C2343244C40B254F82040E362FB
:10356000214B40B253F820301B6853F440631E4C8B
:1035700040B254F8204023601B4B40B253F8203037
:10358000DB6A9B03E0D449B20B0413F47C13D2B280
:10359000134353F00063144C40B254F8204063636B
:1035A000114B40B253F82030DB6A002BF8D50E4B9C
:1035B00040B253F82030DB6A53F000430A4C40B26B
:1035C00054F82040E362084B40B253F820301B68A7
:1035D00049B20C0414F47C14A343034C40B254F8D5
:1035E0002040236010BC7047E40BFF1F00000A1A44
:1035F00070B504000D0016004FF480712000C0B2B9
:10360000FFF714F96DB2002D11D13648E4B2611103
:1036100050F821003349E4B2621151F8221049698F
:10362000012214F01F039A409143416136E02D4876
:10363000E4B2611150F821002A49E4B2621151F854
:1036400022104969012214F01F039A40114341617D
:10365000F6B2002E11D12348E4B2611150F82100D6
:103660000068012114F01F02914088431D49E4B213
:10367000621151F82210086010E01A48E4B261119A
:1036800050F821000068012114F01F029140084306
:103690001449E4B2621151F82210086070BD10B5EF
:1036A00004001048E4B2611150F82100406914F0A0
:1036B0001F01C840C00703D46F210B48FFF732F940
:1036C0000848E4B2611150F821000649E4B26211E1
:1036D00051F82210C968012214F01F039A401143C7
:1036E000C16010BD000BFF1F0C650000002200F040
:1036F00031B80000103A07D330B4B1E83810103AAE
:10370000A0E83810F9D230BC530724BFB1E8081044
:10371000A0E8081044BF51F8043B40F8043BD2072E
:1037200024BF31F8022B20F8022B44BF0B78037022
:103730007047083A07D3B1E80810083A40F8043B4C
:1037400040F804CBF7D25307E4E7002848BF4042D3
:103750007047000000B500BF13009646944610392C
:1037600028BFA0E80C50FAD85FEA417C28BF0CC003
:1037700048BF40F8042BC90728BF20F8022B48BFD8
:1037800000F8012B00BD00005FF0C04108807047C9
:10379000DFF8FC180880704738B5040000252A209F
:1037A000FFF7F2FF0020FFF7F3FF0020FFF7F0FF25
:1037B0002B20FFF7E9FF0020FFF7EAFF0020FFF7CB
:1037C000E7FF2C20FFF7E0FF00200500B5F5963F4E
:1037D00005D2200080B2FFF7DBFF6D1CF6E731BD9C
:1037E00080B5DFF8B008006850F44070DFF8A41826
:1037F0000860DFF8A408006850F00100DFF89818AE
:10380000086040F204516620FFF710F840F20451BE
:103810006520FFF70BF840F204516420FFF706F82B
:1038200040F204516320FFF701F840F20451622096
:10383000FEF7FCFF40F204514A20FEF7F7FF40F28A
:1038400004514920FEF7F2FF40F204514820FEF7F0
:10385000EDFF40F204514720FEF7E8FF40F204512B
:103860004620FEF7E3FF40F204514520FEF7DEFF5D
:1038700040F204514420FEF7D9FF40F204514220A7
:10388000FEF7D4FF40F204514120FEF7CFFF40F293
:1038900004514020FEF7CAFF40F204513220FEF7E7
:1038A000C5FF40F204513120FEF7C0FF40F2045141
:1038B0003020FEF7BBFF40F204512B20FEF7B6FF8D
:1038C00040F204512A20FEF7B1FF40F204512920B2
:1038D000FEF7ACFF40F204513320FEF7A7FF40F2A1
:1038E00004514B20FEF7A2FF40F204514320FEF7A3
:1038F0009DFF40F204516020FEF798FF40F2045112
:103900006120FEF793FF40F204515220FEF78EFF34
:1039100040F204515120FEF789FF40F2045150203B
:10392000FEF784FFDFF87407DFF8741708605FF0B4
:10393000C040DFF870170860DFF86C07DFF86C171D
:103940000860DFF86C07DFF86C1708605FF0004074
:10395000DFF864170860DFF86407DFF864170860B1
:10396000DFF86007DFF86017086001BD80B5FFF77A
:1039700037FFCF20FFF708FF0020FFF709FFC12026
:10398000FFF706FF3020FFF703FFED20FFF7FCFEF7
:103990006420FFF7FDFE0320FFF7FAFE1220FFF779
:1039A000F7FE8120FFF7F4FEE820FFF7EDFE85200B
:1039B000FFF7EEFE1020FFF7EBFE7A20FFF7E8FEA0
:1039C000CB20FFF7E1FE3920FFF7E2FE2C20FFF7C6
:1039D000DFFE0020FFF7DCFE3420FFF7D9FE0220D7
:1039E000FFF7D6FEF720FFF7CFFE2020FFF7D0FE2F
:1039F000EA20FFF7C9FE0020FFF7CAFE0020FFF70C
:103A0000C7FEC020FFF7C0FE1B20FFF7C1FEC1208C
:103A1000FFF7BAFE0120FFF7BBFEC520FFF7B4FE9B
:103A20004520FFF7B5FE2520FFF7B2FEC720FFF7C0
:103A3000ABFEB720FFF7ACFE3620FFF7A5FE28202F
:103A4000FFF7A6FE3A20FFF79FFE5520FFF7A0FEE6
:103A5000B120FFF799FE0020FFF79AFE1A20FFF72A
:103A600097FEB620FFF790FE0A20FFF791FE822016
:103A7000FFF78EFEF220FFF787FE0020FFF788FE9B
:103A80002620FFF781FE0120FFF782FEE020FFF7EE
:103A90007BFE0F20FFF77CFE2A20FFF779FE28200F
:103AA000FFF776FE0820FFF773FE0E20FFF770FE8B
:103AB0000820FFF76DFE5420FFF76AFEA920FFF7EC
:103AC00067FE4320FFF764FE0A20FFF761FE0F2028
:103AD000FFF75EFE0020FFF75BFE0020FFF758FEB9
:103AE0000020FFF755FE0020FFF752FEE120FFF710
:103AF0004BFE0020FFF74CFE1520FFF749FE172074
:103B0000FFF746FE0720FFF743FE1120FFF740FEB8
:103B10000620FFF73DFE2B20FFF73AFE5620FFF769
:103B200037FE3C20FFF734FE0520FFF731FE102062
:103B3000FFF72EFE0F20FFF72BFE3F20FFF728FE9A
:103B40003F20FFF725FE0F20FFF722FE2A20FFF778
:103B50001BFE0020FFF71CFE0020FFF719FE0120CE
:103B6000FFF716FE3F20FFF713FE2B20FFF70CFE9A
:103B70000020FFF70DFE0020FFF70AFE0020FFF7F0
:103B800007FEEF20FFF704FE1120FFF7FDFD0A20DE
:103B9000FEF7FEFE2920FFF7F7FD0A20FEF7F8FEEC
:103BA0002C20FFF7F1FD0020FFF7F6FD6420FEF763
:103BB000EFFEDFF818050088FFF7EEFD01BDF8B550
:103BC00004000D0016001F002A20FFF7DDFD200075
:103BD00080B2000AFFF7DCFD04F0FF00FFF7D8FD1C
:103BE000B6B216FA84F0401E001280B2FFF7D0FD84
:103BF0003019401E00F0FF00FFF7CAFD2B20FFF731
:103C0000C3FD280080B2000AFFF7C2FD05F0FF00E7
:103C1000FFF7BEFDBFB217FA85F0401E001280B25A
:103C2000FFF7B6FD7819401E00F0FF00FFF7B0FD6A
:103C3000F1BD2DE9F34FADF5806DADB000275FF01C
:103C4000000817A90020FDF770FB04000122DDF831
:103C5000B414A3A8FDF78EFB040064B2002C40F05E
:103C6000068205AB362209A9A3A8FDF756FC04007D
:103C700064B2002C40F0FB810DF1360108680500AC
:103C80000DF13A01086881460DF12E010868079090
:103C9000BDF840000890BDF8240044F64251884227
:103CA00004D10DF142010868002800D0DFE1B5F52C
:103CB000A07F00F3DC81B9F1010F0CDBD9F1F0003A
:103CC000022190FBF1F010EB0900401E80465FF0EE
:103CD000FF3003900EE0B9F1000F0AD5D9F10009C9
:103CE000D9F1F000022190FBF1F080460120039011
:103CF00000E0BCE10120ADF80A002800ADF80800A2
:103D0000BDF8B804ADF80400089800FB05F01F30BA
:103D10004009800006900898012800F0BE80102815
:103D20006AD0182840F097810799A3A8FDF75BFD9A
:103D30000400D9F1F000022190FBF1F080455ADB3C
:103D4000D9F1F000022190FBF1F010EB0900804561
:103D500051DA05AB069ADE49A3A8FDF7DEFB0400A5
:103D600064B2002C40F08381D9488246BDF8BA0481
:103D700018EB0000ADF80600BDF80A30BDF80820C9
:103D8000BDF80610BDF80400FFF719FF2C20FFF75F
:103D9000FBFC00200700AF4229DA9AF800008346B6
:103DA0001AF1010A9AF800008DF810001AF1010AC0
:103DB0009AF800008DF811001AF1010A9DF811001F
:103DC000C0B2C008C0B29DF81010C9B28908C9B20B
:103DD000490151EAC0215846C0B2C008C0B20843E8
:103DE0000600300080B2FFF7D3FC7F1CD3E70398B6
:103DF00010EB08089DE72FE10799A3A8FDF7F3FC56
:103E00000400D9F1F000022190FBF1F0804543DB82
:103E1000D9F1F000022190FBF1F010EB0900804590
:103E20003ADA05AB069AAA49A3A8FDF776FB040087
:103E300064B2002C40F01B81A5488246BDF8BA044C
:103E400018EB0000ADF80600BDF80A30BDF80820F8
:103E5000BDF80610BDF80400FFF7B1FE2C20FFF7F7
:103E600093FC00200700AF4212DABAF80000060007
:103E70004FF6C07010EA460016F01F0151EA000626
:103E8000300080B2FFF784FC1AF1020A7F1CEAE7D7
:103E9000039810EB0808B4E7DEE005AB08228C4974
:103EA000A3A8FDF73AFB040089488078C0B2C00897
:103EB000C0B287494978C9B28908C9B2490151EAF3
:103EC000C02083490978C9B2C908C9B20843ADF80E
:103ED00000007F488079C0B2C008C0B27C494979EF
:103EE000C9B28908C9B2490151EAC02078490979A3
:103EF000C9B2C908C9B20843ADF802000799A3A81E
:103F0000FDF771FC0400E81D082190FBF1F5D9F1E3
:103F1000F000022190FBF1F08045C0F29B80D9F1C6
:103F2000F000022190FBF1F010EB0900804580F2D7
:103F3000918005AB069A6649A3A8FDF7EEFA040046
:103F400064B2002C40F0938061488246BDF8BA0408
:103F500018EB0000ADF80600BDF80A30BDF80820E7
:103F6000BDF80610BDF80400FFF729FE2C20FFF76E
:103F70000BFC00200700AF4268DA68469AF8001090
:103F8000C91130F811000600300080B2FFF700FCC4
:103F900068469AF80010C1F38011C9B230F81100D8
:103FA0000600300080B2FFF7F3FB68469AF8001075
:103FB000C1F34011C9B230F811000600300080B2E0
:103FC000FFF7E6FB68469AF80010C1F30011C9B28A
:103FD00030F811000600300080B2FFF7D9FB6846C8
:103FE0009AF80010C1F3C001C9B230F81100060000
:103FF000300080B2FFF7CCFB68469AF80010C1F39E
:104000008001C9B230F811000600300080B2FFF71D
:10401000BFFB68469AF80010C1F34001C9B230F8FE
:1040200011000600300080B2FFF7B2FB68469AF834
:10403000001011F0010130F811000600300080B2CC
:10404000FFF7A6FB1AF1010A7F1C94E7039810EB17
:1040500008085CE700E00AE0A3A8FDF7B6FB04004F
:1040600000210020FDF761F90400012009E0A3A868
:10407000FDF7ABFB040000210020FDF756F904001A
:1040800000200DF5806D2FB0BDE8F08F000000001E
:1040900002000060048004404080044001000F00E2
:1040A00004C0004000C00040800F3C0008C0004039
:1040B00001001F001CC0004018C00040A00B1500EC
:1040C00020C000400000210260C000401210FF1F0D
:1040D0002C0CFF1F3536373427262524010000001D
:1040E00001000000010000001B1A19180400000064
:1040F00000B0034000B00B400000000000000000D2
:1041000000000000000000000000000000000000AF
:104110000000000000004E6F6E4D61736B61626CB9
:104120006500000000486172644661756C740000AF
:10413000000000004D656D4D616E6167656D656ED7
:104140007400004275734661756C740000000000D5
:10415000000055736167654661756C74000000006E
:10416000000000000000000000000000000000004F
:10417000000000000000000000000000000000003F
:10418000000000000000000000000000000000002F
:104190000000000000000000000000000053564333
:1041A000616C6C0000000000000000004465627556
:1041B000674D6F6E69746F720000000000000000B0
:1041C0000000000000000000000050656E645356BF
:1041D0000000000000000000005379735469636B15
:1041E0000000000000000000444D413000000000CD
:1041F00000000000000000444D41310000000000BC
:10420000000000000000444D4132000000000000AA
:104210000000000000444D41330000000000000099
:1042200000000000444D4134000000000000000088
:10423000000000444D413500000000000000000077
:104240000000444D41360000000000000000000066
:1042500000444D4137000000000000000000000055
:10426000444D413800000000000000000000004400
:104270004D41390000000000000000000000444DE6
:1042800041313000000000000000000000444D41BA
:10429000313100000000000000000000444D4131B9
:1042A0003200000000000000000000444D413133A6
:1042B00000000000000000000000444D41313400C7
:1042C000000000000000000000444D4131350000B6
:1042D0000000000000000000444D415F4572726F15
:1042E000720000000000004D434D0000000000007F
:1042F0000000000000004654464C00000000000092
:104300000000000000526561645F436F6C6C69736C
:10431000696F6E004C56445F4C5657000000000019
:104320000000004C4C57000000000000000000009E
:1043300000005761746368646F670000000000004C
:1043400000524E4700000000000000000000000086
:104350004932433000000000000000000000004926
:104360003243310000000000000000000000535004
:1043700049300000000000000000000000535049D8
:1043800031000000000000000000000049325330FE
:104390005F54780000000000000000493253305F95
:1043A00052780000000000000000526573657276CC
:1043B00065643436000000000055415254305F52AD
:1043C000585F54580000000055415254305F455228
:1043D0005200000000000055415254315F52585FB6
:1043E00054580000000055415254315F455252006C
:1043F000000000000055415254325F52585F54583B
:104400000000000055415254325F455252000000F6
:1044100000000055415254335F52585F5458000019
:10442000000055415254335F4552520000000000D5
:104430000041444330000000000000000000000084
:10444000434D503000000000000000000000004319
:104450004D503100000000000000000000004654F4
:104460004D30000000000000000000000046544DE8
:1044700031000000000000000000000046544D32F2
:104480000000000000000000000000434D54000048
:104490000000000000000000000052544300000033
:1044A0000000000000000000005254435F536563A9
:1044B00000000000000000005049543000000000DF
:1044C00000000000000000504954310000000000CE
:1044D00000000000000050495432000000000000BD
:1044E00000000000005049543300000000000000AC
:1044F00000000000504442300000000000000000B6
:104500000000005553423000000000000000000091
:1045100000005553424443440000000000000000E6
:1045200000526573657276656437310000000000E3
:104530004441433000000000000000000000004D36
:1045400043470000000000000000000000004C5045
:1045500054696D65720000000000000000504F5269
:10456000544100000000000000000000504F525471
:104570004200000000000000000000504F52544371
:1045800000000000000000000000504F52544400A2
:10459000000000000000000000504F525445000091
:1045A0000000000000000000535749000000000018
:1045B00000000000000000535049320000000000DD
:1045C00000000000000055415254345F52585F54BF
:1045D000580000000055415254345F4552520000CB
:1045E0000000000055415254355F52585F54580046
:1045F00000000055415254355F4552520000000002
:104600000000434D50320000000000000000000098
:104610000046544D33000000000000000000000080
:104620004441433100000000000000000000004150
:104630004443310000000000000000000000493247
:104640004332000000000000000000000043414E23
:10465000305F4F525F4D425F6275660043414E309E
:104660005F4275735F4F666600000043414E305FE6
:104670004572726F72000000000043414E305F547B
:10468000785F5761726E696E6743414E305F527852
:104690005F5761726E696E6743414E305F57616B61
:1046A000655F55700000005344484300000000005F
:1046B000000000000000454E45545F313538385F3A
:1046C00054696D6572454E45545F5472616E736DE9
:1046D00069740000454E45545F52656365697665AF
:1046E000000000454E45545F4572726F7200000035
:1046F00000005265736572766564313032000000E7
:1047000000526573657276656431303300000000D5
:104710005265736572766564313034000000005272
:10472000657365727665643130350000000052654E
:10473000736572766564313036000000005265732F
:10474000657276656431303700000000526573652C
:10475000727665643130380000000052657365720E
:1047600076656431303900000000526573657276F9
:104770006564313130000000005265736572766502
:1047800064313131000000005265736572766564F2
:104790003131320000000052657365727665643114
:1047A0003133000000005265736572766564313103
:1047B00034000000005265736572766564313135EE
:1047C0000000000000F00F4040F00F4080F00F406C
:1047D000C0F00F4000F10F4000600640007006403E
:1047E00000600E403000180032001801340018023A
:1047F00036001803380018043A0018053C00180663
:104800003E00180740001808420018094400180A22
:104810004600180B4800180C4A00180D4C00180EE2
:104820004E00180F500018105200181154001812A2
:1048300056001813580018145A0018155C00181662
:104840005E00181760001818620018196400181A22
:104850006600181B6800181C6A00181D6C00181EE2
:104860006E00181F73001316780013187D00131ABA
:104870008200131C8700131E8C000E1296000E156A
:10488000A0000E18AA000E1BB4000E1EC8000C1CBF
:10489000000107070090044000A0044000B004405D
:1048A00000C0044000D0044000C0024000D00240DC
:1048B00000C00A4000A0064000B0064000C006400C
:1048C00000D0064000A00E4000B00E4001000000E5
:1048D00038B50400002564B22B2C04DB8521DFF8F9
:1048E0003005FEF71FF8DFF82C0564B230F824001D
:1048F0000500ADB2652D04DA0020DFF81C15087044
:1049000083E0ADB2C92D04DA0120DFF80C15087080
:104910007BE0ADB2B5F5967F04DC0220DFF8F81439
:10492000087072E0ADB2B5F5C87F04DC0320DFF893
:10493000E814087069E0ADB2B5F5FA7F04DC042034
:10494000DFF8D414087060E0ADB2B5F5167F04DC72
:104950000520DFF8C414087057E0ADB2B5F52F7F1D
:1049600004DC0620DFF8B01408704EE0ADB2B5F5F7
:10497000487F04DC0720DFF8A014087045E0ADB2E2
:10498000B5F5617F04DC0820DFF88C1408703CE08A
:10499000ADB2B5F57A7F04DC0920DFF87C1408702D
:1049A00033E0ADB240F24D40854204DA0A20DFF830
:1049B0006814087029E0ADB2B5F5966F04DC0B20E1
:1049C000DFF85414087020E0ADB240F21550854273
:1049D00004DA0C20DFF84014087016E0ADB2B5F52B
:1049E000AF6F04DC0D20DFF8301408700DE0ADB2BD
:1049F00040F2DD50854204DA0E20DFF81C14087006
:104A000003E00F20DFF810140870ADB2332D04DA84
:104A10000020DFF80414487080E0ADB2652D04DAA0
:104A20000120DFF8F413487078E0ADB2972D04DA76
:104A30000220DFF8E413487070E0ADB2C92D04DA4B
:104A40000320DFF8D413487068E0ADB2FB2D04DA20
:104A50000420DFF8C413487060E0ADB2B5F5967F6E
:104A600004DC0520DFF8B013487057E0ADB2B5F5AF
:104A7000AF7F04DC0620DFF8A01348704EE0ADB233
:104A8000B5F5C87F04DC0720DFF88C13487045E0DB
:104A9000ADB2B5F5E17F04DC0820DFF87C13487087
:104AA0003CE0ADB2B5F5FA7F04DC0920DFF868130D
:104AB000487033E0ADB240F22720854204DA0A2084
:104AC000DFF85413487029E0ADB2B5F5167F04DC69
:104AD0000B20DFF84413487020E0ADB240F28B2089
:104AE000854204DA0C20DFF83013487016E0ADB2CE
:104AF000B5F52F7F04DC0D20DFF81C1348700DE0A6
:104B0000ADB240F2EF20854204DA0E20DFF8081340
:104B1000487003E00F20DFF800134870ADB21A2D83
:104B200004DA0020DFF8F012887069E0ADB2332DAE
:104B300003DA0120B849887062E0ADB24C2D03DA87
:104B40000220B54988705BE0ADB2652D03DA032021
:104B5000B149887054E0ADB27E2D03DA0420AE492D
:104B600088704DE0ADB2972D03DA0520AA49887010
:104B700046E0ADB2B02D03DA0620A74988703FE0C9
:104B8000ADB2C92D03DA0720A349887038E0ADB271
:104B9000E22D03DA0820A049887031E0ADB2FB2D88
:104BA00003DA09209C4988702AE0ADB2B5F58A7F06
:104BB00003DA0A209849887022E0ADB2B5F5967FF5
:104BC00003DC0B20944988701AE0ADB2B5F5A37FE1
:104BD00003DA0C209049887012E0ADB2B5F5AF7FD2
:104BE00003DC0D208C4988700AE0ADB2B5F5BC7FBE
:104BF00003DA0E208849887002E00F208649887009
:104C0000ADB21A2D03DA00208349C87069E0ADB255
:104C1000332D03DA01208049C87062E0ADB24C2D1B
:104C200003DA02207C49C8705BE0ADB2652D03DA7F
:104C300003207949C87054E0ADB27E2D03DA042018
:104C40007549C8704DE0ADB2972D03DA0520724961
:104C5000C87046E0ADB2B02D03DA06206E49C870C8
:104C60003FE0ADB2C92D03DA07206B49C87038E0C8
:104C7000ADB2E22D03DA08206749C87031E0ADB269
:104C8000FB2D03DA09206449C8702AE0ADB2B5F5FE
:104C90008A7F03DA0A206049C87022E0ADB2B5F518
:104CA000967F03DC0B205C49C8701AE0ADB2B5F505
:104CB000A37F03DA0C205849C87012E0ADB2B5F5F5
:104CC000AF7F03DC0D205449C8700AE0ADB2B5F5E2
:104CD000BC7F03DA0E205049C87002E00F204E4915
:104CE000C87031BD70B5040000250026200040B218
:104CF000FFF7EEFD4948007810F0FD0047490870C5
:104D00004648007850F01000444908704448007844
:104D100010F0FB00424908704148007850F08000D4
:104D20003F4908703E48007850F038003C49087010
:104D30003C480078C006FBD43A480078C0F38100B4
:104D4000C0B20228F8D1384800680600364800682A
:104D500050F47F00344908602F4800782E49497884
:104D6000090611F0706151EA00702B498978090534
:104D700011F4700108432849C978090411F470211D
:104D800008432A4908600020050028002249C97804
:104D9000C0B2884201D26D1CF7E723480660244860
:104DA00000781C4964B201EB8401897811F01F017D
:104DB00008431F4908701F480078164964B201EB88
:104DC0008401C97811F01F0108431A490870194875
:104DD000007850F0400017490870124800788006AB
:104DE000FBD5104800784006FBD50D48007810F040
:104DF0003F000B4908700B480078C0F38100C0B237
:104E00000328F8D1034864B230F82400C0B270BD62
:104E100084650000200BFF1FCC0BFF1F01400640E4
:104E2000004006400640064000F001404480044037
:104E30000440064005400640FFFFFFFFFFFFFFFF65
:104E4000FFFFFFFFFFFFFFFFFFFFFFFFFFFFFFFF72
:104E5000FFFFFFFFFFFFFFFFFFFFFFFFFFFFFFFF62
:104E6000FFFFFFFFFFFFFFFFFFFFFFFFFFFFFF7FD2
:104E70007F3F3F1F1F1F3F3F7F7FFFFFFFFFFFFF62
:104E8000FFFFFFFFFFFFFFFFFFFFFFFFFFFFFFFF32
:104E9000FFFFFFFFFFFFFFFFFFFFFFFFFFFFFFFF22
:104EA000FFFFFFFFFFFFFFFFFFFFFFFFFFFFFFFF12
:104EB000FFFFFFFFFFFFFFFFFFFFFFFFFFFFFFFF02
:104EC000FFFFFFFFFFFFFFFFFFFFFFFFFFFFFFFFF2
:104ED000FFFFFFFFFFFFFFFFFFFFFFFFFFFFFFFFE2
:104EE000FFFFFFFFFFFFFFFFF7F7E3E3C1C1808094
:104EF000C0C0E0E0F0F0F8787C3C3E1E1F0F0707D2
:104F00000307070F0F9F9FFFFFFFFFFFFFFFFFFF3D
:104F1000FFFFFFFFFFFFFFFFFFFFFFFFFFFFFFFFA1
:104F2000FFFFFFFFFFFFFFFFFFFFFFFFFFFFFFFF91
:104F3000FFFFFFFFFFFFFFFFFFFFFFFFFFFFFFFF81
:104F4000FFFFFFFFFFFFFFFFFFFFFFFFFFFFFFFF71
:104F5000FFFFFFFFFFFFFFFFFFFFFFFFFFFFFFFF61
:104F6000FFFFFFFFFFFFFFFFFFFFFFFFFFFFFFFF51
:104F7000FFFFFFFFFFFCFCF8F8F8F0F0F0F8F8FC9A
:104F8000BCBE1E1F0F0F0707030101008080C1C1B7
:104F9000E3E3F3F7FFFFFFFFFFFFFFFFFFFFFFFF6D
:104FA000FFFFFFFFFFFFFFFFFFFFFFFFFFFFFFFF11
:104FB000FFFFFFFFFFFFFFFFFFFFFFFFFFFFFFFF01
:104FC000FFFFFFFFFFFFFFFFFFFFFFFFFFFFFFFFF1
:104FD000FFFFFFFFFFFFFFFFFFFFFFFFFFFFFFFFE1
:104FE000FFFFFFFFFFFFFFFFFFFFFFFFFFFF7F7FD1
:104FF0007F3F1F1F0F0F0707030301038383C7C7EB
:10500000EFEFFFFFFF7E7E7C7EFEFFFFFFFFFFFFD7
:10501000FFFFFFFFFFFFFFFFFFFFFFFFFFFFFFFFA0
:10502000FFFFFFFFFFFFFFFFFFFFFFFFFFFFFFFF90
:10503000FFFFFFFFFFFFFFFFFFFFFFFFFFFFFFFF80
:10504000FFFFFFFFFFFFFFFFFFFFFFFFFFFFFFFF70
:10505000FFFFFFFFFFFFFFFFFFFFFFFFFFFFFF7FE0
:105060007F3F3F1F1F0F0F07070F0F0F0F9F9FBEA1
:10507000FEFEFCFCF8F8F8FCFCFEDECFCF878703D1
:10508000030101008080C0C0E0F0F0F9F9FFFFFFEC
:10509000FFFFFFFFFFFFFFFFFFFFFFFFFFFFFFFF20
:1050A000FFFFFFFFFFFFFFFFFFFFFFFFFFFFFFFF10
:1050B000FFFFFFFFFFFFFFFFFFFFFFFFFFFFFFFF00
:1050C000FFFFFFFFFFFFFFFFFFFFFFFFFFFFFFFFF0
:1050D000FFFFFFFFFFFFFFFFFFFFFFFFFDFCF8F8F3
:1050E000F8F0F0E0F0F0F8F8BCBC1E1F0F0F070757
:1050F000030301010080C1C1E3E3F7F7FFFFFFFFF6
:10510000FFFFFFFFFFFFFFFFFFFFFFFFFFFFFFFFAF
:10511000FFFFFFFFFFFFFFFFFFFFFFFFFFFFFFFF9F
:10512000FFFFFFFFFFFFFFFFFFFFFFFFFFFFFFFF8F
:10513000FFFFFFFFFFFFFFFFFFFFFFFFFFFFFFFF7F
:10514000FFFFFFFFFFFFFFFFFFFFFFFFFFFFFFFF6F
:10515000FFFFFFFFFFFFFF7F7F3F3F1F1F0F0F0777
:1051600007030303038787CFCFFFFFFFFEFEFEFC8D
:10517000FCFEFEFFFFFFFFFFFFFFFFFFFFFFFFFF44
:10518000FFFFFFFFFFFFFFFFFFFFFFFFFFFFFFFF2F
:10519000FFFFFFFFFFFFFFFFFFFFFFFFFFFFFFFF1F
:1051A000FFFFFFFFFFFFFFFFFFFFFFFFFFFFFFFF0F
:1051B000FFFFFFFFFFFFFFFFFFFFFFFFFFFFFFFFFF
:1051C000FFFFFFFFFFFFFFFFFFFFFFFFFFFFFFFFEF
:1051D000FFFFFFFFFFFFFFFEFEFCFCF8F8F8F8FC06
:1051E000FCFEFEFFFFFFFFFFFFFFFFFFFFFFFFFFD4
:1051F000FFFFFFFFFFFFFFFFFFFFFFFFFFFFFFFFBF
:10520000FFFFFFFFFFFFFFFFFFFFFFFFFFFFFFFFAE
:10521000FFFFFFFFFFFFFFFFFFFFFFFFFFFFFFFF9E
:10522000FFFFFFFFFFFFFFFFFFFFFFFFFFFFFFFF8E
:10523000FFFFFFFFFFFFFFFF10B5040064B2601126
:10524000C0B2002802D0012817D02DE0DFF8AC0250
:10525000006850F00060DFF8A4120860DFF8A002D8
:10526000006830F09000DFF898120860DFF89002D4
:105270000068DFF88C1208601BE0DFF88802006825
:1052800050F00060DFF87C120860DFF874020068FC
:1052900030F41040DFF868120860DFF8640200683C
:1052A000DFF85C12086004E03021DFF85C02FDF7F3
:1052B00039FB64B22000002800F08C80012800F047
:1052C0008980032800F08680082851D0092854D00E
:1052D0000A2857D00B285AD00C285DD00D2860D052
:1052E0000E2863D00F2866D0102873D0112867D0FD
:1052F00012286AD013286DD014286BD01A2869D0D0
:105300001D2867D01E2865D0202800F0A580212800
:1053100000F0A280232800F09F8024285BD025285D
:105320005ED0262861D0272864D0282867D0292875
:105330006AD02A286DD02B2870D02C2873D02D2825
:1053400076D02E2879D02F287CD0302800F0848089
:1053500031287CD0322800F07F8033287CD034285C
:105360007AD03A2878D03D2876D03E2874D074E0A0
:1053700000212020FDF75AFA73E000212120FDF7DB
:1053800055FA6EE000210720FDF750FA69E0002190
:105390000820FDF74BFA64E000212220FDF746FAD1
:1053A0005FE000212320FDF741FA5AE00021402070
:1053B000FDF73CFA55E000214120FDF737FA50E0B7
:1053C00000219820FDF732FA4BE000219920FDF7EB
:1053D0002DFA46E045E000218020FDF727FA40E065
:1053E00000218120FDF722FA3BE000218220FDF719
:1053F0001DFA36E000218320FDF718FA31E0002184
:105400002020FDF713FA2CE000212120FDF70EFAF1
:1054100027E000212420FDF709FA22E000212520C1
:10542000FDF704FA1DE000212620FDF7FFF918E042
:1054300000212720FDF7FAF913E000212A20FDF7CB
:10544000F5F90EE000212B20FDF7F0F909E000212D
:105450001120FDF7EBF904E003E0A1212A48FDF754
:1054600061FA10BD10B4294A40B2431152F823200A
:1054700049B28B0013F00C0353F050039360234A9E
:1054800040B2431152F823200423D36040B210F0FD
:105490001F0252F040021D4B40B2441153F8243019
:1054A0001A6010BC704770B504000D00002629007A
:1054B00049B2200040B2FFF7D5FF144864B2611131
:1054C00050F8210000680006F7D5104864B2611159
:1054D00050F82100006906000C4864B2611150F8D0
:1054E0002100006830F08000084964B2621151F870
:1054F00022100860300080B270BD00003C80044083
:105500001880044030800440D06400002C04FF1F49
:1055100080B50022002198480078FEF769F8002243
:10552000002195484078FEF763F800220021924858
:105530008078FEF75DF8002200218F48C078FEF7E2
:1055400057F8002200218C480079FEF751F801BD80
:1055500080B58A480068002818D1894886490979A9
:10556000491150F8210000698349097911F01F01A0
:10557000C840C00700F18E80012080490860FDF717
:105580006BFA4FF4FA70FDF735FA83E07B48006858
:10559000012840F07F807A4877498978491150F88E
:1055A000210000697449897811F01F01C840C007C3
:1055B0001ED474480068401E724908607148006833
:1055C000012802DA05206F49086001206E49086051
:1055D00001206E49086000206D490860012067497C
:1055E0000860FDF739FA4FF4FA70FDF703FA51E05D
:1055F00063486149C978491150F8210000695E4942
:10560000C97811F01F01C840C0071ED45D4800686A
:10561000401C5C4908605B480068062802DB0120EA
:10562000584908600120584908600120574908601E
:10563000002057490860012050490860FDF70CFA26
:105640004FF4FA70FDF7D6F924E04D484A4909783D
:10565000491150F8210000694749097811F01F01EC
:10566000C840C00704D44FF4FA70FDF7C3F911E045
:10567000434841494978491150F8210000693E49A1
:10568000497811F01F01C840C00703D44FF4FA70E5
:10569000FDF7B0F939480068002804D101213D48E0
:1056A000FDF7E6FC67E037480068012807D062D3C1
:1056B000032839D02BD3052850D042D35BE00023F8
:1056C000354A00212520FDF781FA0023334A0121C4
:1056D0003120FDF77BFA0020009031480368314A01
:1056E00002210020FDF7F9FA002000902E480388DF
:1056F0002E4A03210020FDF7F0FA002000902A48EE
:1057000043882B4A04210020FDF7E7FA33E0002309
:10571000214A00212520FDF759FA0023254A0121BD
:105720003120FDF753FA26E000231B4A00212520F3
:10573000FDF74CFA0023204A01213120FDF746FAFB
:1057400019E00023144A00212520FDF73FFA002329
:105750001A4A01213120FDF739FA0CE000230E4AE4
:1057600000212520FDF732FA0023154A01213120BE
:10577000FDF72CFAFFE701BD2404FF1F240CFF1FD7
:10578000000BFF1F1804FF1F1C04FF1F2004FF1F36
:10579000280CFF1F384E0000E06700003C68000046
:1057A000EC0FFF1FEC670000F00FFF1FF867000011
:1057B00004680000446800004C6800005468000061
:1057C0005C6800002DE9F84304000D000026002766
:1057D0005FF000085FF0000964B2002C08D0022CD2
:1057E00028D016D3042C47D035D3052C55D065E0EE
:1057F0007B48006850F48060794908604FF440713C
:105800000F20FDF713F84FF440710E20FDF70EF84E
:1058100058E07348006850F40060714908604FF424
:1058200040714320FDF702F84FF440714420FCF72B
:10583000FDFF47E06A48006850F4805068490860FE
:105840004FF440716220FCF7F1FF4FF44071632088
:10585000FCF7ECFF36E06248006850F40050604905
:1058600008604FF440715020FCF7E0FF4FF44071A6
:105870005120FCF7DBFF25E05A48006850F48060B7
:10588000584908604FF440714E20FCF7CFFF4FF4A9
:1058900040714F20FCF7CAFF14E05248006850F4F2
:1058A0000060504908604FF440718920FCF7BEFF4A
:1058B0004FF440718820FCF7B9FF03E0B3214A4858
:1058C000FDF730F8494864B250F82400C07810F071
:1058D000F300464964B251F82410C87000204349CF
:1058E00064B251F82410887064B2002C02D064B203
:1058F000012C06D13E4800684FF47A7148430700F6
:1059000005E03C4800684FF47A71484307002801DD
:10591000B7FBF0F080461FFA88F8B8F5005F02DBAD
:1059200041F6FF708046B7FBF5F01FFA88F8B0EB40
:10593000081081461FFA89F9B9F1200F03DBCF2146
:105940002948FCF7EFFF294864B250F8240000789A
:1059500010F0E0000600C8F304203043234964B28D
:1059600051F824100870214864B250F8240080F8DF
:1059700001801E4864B250F82400807A10F0E000E4
:10598000060019F01F003043184964B251F8241082
:1059900088728820154964B251F82410087413489D
:1059A00064B250F82400C07850F00C000F4964B283
:1059B00051F82410C870BDE8F1830A78002A0ED08F
:1059C0000A4A40B252F8202012791206F8D50A7815
:1059D000064B40B253F82030DA71491CEDE77047AE
:1059E0003480044028800440EC660000F00BFF1F68
:1059F0000810FF1F0C10FF1F000000000000000037
:105A0000002F000000000700070000147F147F141F
:105A100000242A7F2A1200626408132300364955A5
:105A2000225000000503000000001C22410000007D
:105A300041221C000014083E08140008083E080813
:105A4000000000A06000000808080808000060606E
:105A50000000002010080402003E5149453E0000AD
:105A6000427F4000004261514946002141454B318F
:105A7000001814127F10002745454539003C4A495B
:105A800049300001710905030036494949360006CD
:105A90004949291E00003636000000005636000035
:105AA00000081422410000141414141400004122B0
:105AB000140800020151090600324959513E007C88
:105AC0001211127C007F49494936003E4141412272
:105AD000007F4141221C007F49494941007F09095B
:105AE0000901003E4149497A007F0808087F00000B
:105AF000417F4100002040413F01007F08142241C6
:105B0000007F40404040007F020C027F007F04087D
:105B1000107F003E4141413E007F09090906003ED9
:105B20004151215E007F0919294600464949493102
:105B30000001017F0101003F4040403F001F204025
:105B4000201F003F4038403F0063140814630007E3
:105B50000870080700615149454300007F4141003A
:105B600000552A552A55000041417F0000040201DA
:105B700002040040404040400000010204000020B8
:105B800054545478007F48444438003844444420F6
:105B900000384444487F00385454541800087E09A3
:105BA00001020018A4A4A47C007F0804047800006B
:105BB000447D4000004080847D00007F1028440028
:105BC0000000417F4000007C04180478007C080439
:105BD000047800384444443800FC24242418001875
:105BE000242418FC007C0804040800485454542061
:105BF00000043F444020003C4040207C001C2040EA
:105C0000201C003C4030403C004428102844001C2C
:105C1000A0A0A07C004464544C4414141414141424
:105C20002DE9F04FA1B004000D00002600275FF021
:105C300040085FF000094FF6FF7A5FF0000B6846FE
:105C4000DFF84C118022FDF755FDDFF848010068B0
:105C50004CF25131884202D2002006000BE0DFF8FE
:105C600034010068DFF83011884202D201200600BA
:105C700001E002200600DFF81C0100684FF47A7191
:105C800048430121B1406943B0FBF1F0814664B261
:105C9000002C03D0022C23D011D332E03F480068FF
:105CA00050F040003D49086040F223519820FCF735
:105CB000BDFD40F223519920FCF7B8FD25E037489F
:105CC000006850F080003549086040F223214A20E6
:105CD000FCF7ACFD40F223214B20FCF7A7FD14E0BC
:105CE0002F48006850F040002D49086040F22351D1
:105CF0000C20FCF79BFD40F223510B20FCF796FD96
:105D000003E0B2212748FCF70DFE5FFA88F8B8F1EE
:105D1000000F1DD0B8F101081FFA89F968465FFA33
:105D200088F830F81800B9EB0000FDF70EFD834647
:105D30001FFA8BFBBBF1000F01D1474608E0584624
:105D4000514680B289B28842DFD24746DA46DCE764
:105D500017F03F0050EA8610134964B251F824103E
